:10000000E01300206D240000A15A000059240000D4
:100010005924000059240000592400000000000069
:10002000000000000000000000000000AD22000001
:10003000592400000000000059220000592400004B
:1000400011220000112200001122000011220000E4
:1000500011220000112200001122000011220000D4
:1000600011220000112200001122000011220000C4
:1000700011220000112200001122000011220000B4
:1000800011220000112200001122000011220000A4
:100090001122000011220000112200001122000094
:1000A0001122000011220000112200001122000084
:1000B0001122000011220000112200001122000074
:1000C0001122000011220000112200001122000064
:1000D0001122000011220000112200001122000054
:1000E0001122000011220000112200001122000044
:1000F0001122000011220000112200001122000034
:1001000081F0004102E000BF83F0004330B54FEAC8
:1001100041044FEA430594EA050F08BF90EA020F35
:100120001FBF54EA000C55EA020C7FEA645C7FEAC8
:10013000655C00F0E2804FEA5454D4EB5555B8BFEB
:100140006D420CDD2C4480EA020281EA030382EA5C
:10015000000083EA010180EA020281EA0303362DEE
:1001600088BF30BD11F0004F4FEA01314FF4801CC1
:100170004CEA113102D0404261EB410113F0004FD3
:100180004FEA03334CEA133302D0524263EB43038A
:1001900094EA050F00F0A780A4F10104D5F1200E28
:1001A0000DDB02FA0EFC22FA05F2801841F1000183
:1001B00003FA0EF2801843FA05F359410EE0A5F157
:1001C00020050EF1200E012A03FA0EFC28BF4CF088
:1001D000020C43FA05F3C01851EBE37101F000453E
:1001E00007D54FF0000EDCF1000C7EEB00006EEB4B
:1001F0000101B1F5801F1BD3B1F5001F0CD34908D5
:100200005FEA30004FEA3C0C04F101044FEA44522B
:1002100012F5800F80F09A80BCF1004F08BF5FEAB2
:10022000500C50F1000041EB045141EA050130BD92
:100230005FEA4C0C404141EB0101013C28BFB1F5A4
:10024000801FE9D291F0000F04BF01460020B1FAEF
:1002500081F308BF2033A3F10B03B3F120020CDAC2
:100260000C3208DD02F1140CC2F10C0201FA0CF0A0
:1002700021FA02F10CE002F11402D8BFC2F1200C05
:1002800001FA02F120FA0CFCDCBF41EA0C019040BB
:10029000E41AA2BF01EB0451294330BD6FEA040404
:1002A0001F3C1CDA0C340EDC04F11404C4F12002EF
:1002B00020FA04F001FA02F340EA030021FA04F301
:1002C00045EA030130BDC4F10C04C4F1200220FA58
:1002D00002F001FA04F340EA0300294630BD21FA96
:1002E00004F0294630BD94F0000F83F4801306BF5C
:1002F00081F480110134013D4EE77FEA645C18BF50
:100300007FEA655C29D094EA050F08BF90EA020FE6
:1003100005D054EA000C04BF1946104630BD91EADE
:10032000030F1EBF0021002030BD5FEA545C05D1E1
:100330004000494128BF41F0004130BD14F5800420
:100340003CBF01F5801130BD01F0004545F0FE4194
:1003500041F470014FF0000030BD7FEA645C1ABFC9
:10036000194610467FEA655C1CBF0B46024650EA00
:10037000013406BF52EA033591EA030F41F400212C
:1003800030BD00BF90F0000F04BF0021704730B5B2
:100390004FF4806404F132044FF000054FF0000187
:1003A00050E700BF90F0000F04BF0021704730B548
:1003B0004FF4806404F1320410F0004548BF40421D
:1003C0004FF000013EE700BF42004FEAE2014FEA72
:1003D00031014FEA02701FBF12F07F4393F07F4F4D
:1003E00081F06051704732F07F4208BF704793F050
:1003F0007F4F04BF41F40021704730B54FF4607463
:1004000001F0004521F000411CE700BF50EA010265
:1004100008BF704730B54FF000050AE050EA01020E
:1004200008BF704730B511F0004502D5404261EB7E
:1004300041014FF4806404F132045FEA915C3FF4BF
:10044000D8AE4FF003025FEADC0C18BF03325FEA5C
:10045000DC0C18BF033202EBDC02C2F1200300FA0D
:1004600003FC20FA02F001FA03FE40EA0E0021FA32
:1004700002F11444BDE600BF70B54FF0FF0C4CF420
:10048000E06C1CEA11541DBF1CEA135594EA0C0FD2
:1004900095EA0C0F00F0DEF82C4481EA030621EA0D
:1004A0004C5123EA4C5350EA013518BF52EA033548
:1004B00041F4801143F4801338D0A0FB02CE4FF0FA
:1004C0000005E1FB02E506F00042E0FB03E54FF02A
:1004D0000006E1FB03569CF0000F18BF4EF0010E22
:1004E000A4F1FF04B6F5007F64F5407404D25FEA1E
:1004F0004E0E6D4146EB060642EAC62141EA5551D1
:100500004FEAC52040EA5E504FEACE2EB4F1FD0C12
:1005100088BFBCF5E06F1ED8BEF1004F08BF5FEA90
:10052000500E50F1000041EB045170BD06F0004642
:1005300046EA010140EA020081EA0301B4EB5C04EF
:10054000C2BFD4EB0C0541EA045170BD41F48011E7
:100550004FF0000E013C00F3AB8014F1360FDEBF0C
:10056000002001F0004170BDC4F10004203C35DAE8
:100570000C341BDC04F11404C4F1200500FA05F36B
:1005800020FA04F001FA05F240EA020001F000420C
:1005900021F0004110EBD37021FA04F642EB060182
:1005A0005EEA430E08BF20EAD37070BDC4F10C04AC
:1005B000C4F1200500FA04F320FA05F001FA04F270
:1005C00040EA020001F0004110EBD37041F100015C
:1005D0005EEA430E08BF20EAD37070BDC4F1200567
:1005E00000FA05F24EEA020E20FA04F301FA05F2CF
:1005F00043EA020321FA04F001F0004121FA04F277
:1006000020EA020000EBD3705EEA430E08BF20EA46
:10061000D37070BD94F0000F0FD101F00046400080
:1006200041EB010111F4801F08BF013CF7D041EA02
:10063000060195F0000F18BF704703F00046520006
:1006400043EB030313F4801F08BF013DF7D043EAD7
:100650000603704794EA0C0F0CEA135518BF95EA8D
:100660000C0F0CD050EA410618BF52EA4306D1D114
:1006700081EA030101F000414FF0000070BD50EA33
:10068000410606BF1046194652EA430619D094EABD
:100690000C0F02D150EA013613D195EA0C0F05D1A7
:1006A00052EA03361CBF104619460AD181EA0301FB
:1006B00001F0004141F0FE4141F470014FF00000B3
:1006C00070BD41F0FE4141F4780170BD70B54FF04E
:1006D000FF0C4CF4E06C1CEA11541DBF1CEA1355CE
:1006E00094EA0C0F95EA0C0F00F0A7F8A4EB0504B0
:1006F00081EA030E52EA03354FEA013100F08880A7
:100700004FEA03334FF0805545EA131343EA12636F
:100710004FEA022245EA111545EA10654FEA002624
:100720000EF000419D4208BF964244F1FD0404F5DD
:10073000407402D25B084FEA3202B61A65EB030539
:100740005B084FEA32024FF480104FF4002CB6EBF6
:10075000020E75EB030E22BFB61A754640EA0C0076
:100760005B084FEA3202B6EB020E75EB030E22BFB6
:10077000B61A754640EA5C005B084FEA3202B6EBF7
:10078000020E75EB030E22BFB61A754640EA9C00B6
:100790005B084FEA3202B6EB020E75EB030E22BF86
:1007A000B61A754640EADC0055EA060E18D04FEA44
:1007B000051545EA16754FEA06164FEAC30343EAE4
:1007C00052734FEAC2025FEA1C1CC0D111F4801FB1
:1007D0000BD141EA00014FF000004FF0004CB6E7AA
:1007E00011F4801F04BF01430020B4F1FD0C88BF49
:1007F000BCF5E06F3FF6AFAEB5EB030C04BFB6EB54
:10080000020C5FEA500C50F1000041EB045170BD46
:100810000EF0004E4EEA113114EB5C04C2BFD4EB73
:100820000C0541EA045170BD41F480114FF0000EF7
:10083000013C90E645EA060E8DE60CEA135594EA73
:100840000C0F08BF95EA0C0F3FF43BAF94EA0C0F76
:100850000AD150EA01347FF434AF95EA0C0F7FF4EB
:1008600025AF104619462CE795EA0C0F06D152EA3F
:1008700003353FF4FDAE1046194622E750EA410623
:1008800018BF52EA43067FF4C5AE50EA41047FF434
:100890000DAF52EA43057FF4EBAE12E74FF0FF3C99
:1008A00006E000BF4FF0010C02E000BF4FF0010C6A
:1008B0004DF804CD4FEA410C7FEA6C5C4FEA430CE3
:1008C00018BF7FEA6C5C1BD001B050EA410C0CBF32
:1008D00052EA430C91EA030F02BF90EA020F002094
:1008E000704710F1000F91EA030F58BF994208BFFB
:1008F00090422CBFD8176FEAE37040F001007047B8
:100900004FEA410C7FEA6C5C02D150EA013C07D10E
:100910004FEA430C7FEA6C5CD6D152EA033CD3D059
:100920005DF8040B704700BF8446104662468C4653
:100930001946634600E000BF01B5FFF7B7FF002886
:1009400048BF10F1000F01BD4DF808EDFFF7F4FFAF
:100950000CBF012000205DF808FB00BF4DF808ED3A
:10096000FFF7EAFF34BF012000205DF808FB00BF5D
:100970004DF808EDFFF7E0FF94BF012000205DF87F
:1009800008FB00BF4DF808EDFFF7CEFF94BF012034
:1009900000205DF808FB00BF4DF808EDFFF7C4FF2D
:1009A00034BF012000205DF808FB00BF4FEA410280
:1009B00012F5001215D211D56FF47873B3EB6252B1
:1009C00012D94FEAC12343F0004343EA505311F0D8
:1009D000004F23FA02F018BF404270474FF000006A
:1009E000704750EA013005D111F0004008BF6FF0A8
:1009F000004070474FF00000704700BF53B94AB93C
:100A0000002908BF00281CBF4FF0FF314FF0FF3016
:100A100000F06CB9ADF1080C6DE904CE00F006F8F9
:100A2000DDF804E0DDE9022304B070472DE9F0476A
:100A3000089E0D4604468E46002B40F082808A4276
:100A4000174646D9B2FA82F24AB1C2F1200105FA3C
:100A500002F320FA01F1974041EA030E94404FEA75
:100A60001748230CBEFBF8FCB9B208FB1CEE43EAA6
:100A70000E430CFB01F098420AD9FB180CF1FF352C
:100A800080F01681984240F21381ACF1020C3B4495
:100A90001B1AA4B2B3FBF8F008FB103344EA03447A
:100AA00000FB01F1A14209D93C1900F1FF3380F0AC
:100AB0000181A14240F2FE8002383C44641A40EABF
:100AC0000C4000211EB1D4400023C6E90043BDE81C
:100AD000F08702B9FFDEB2FA82F2002A4FD1CB1BB7
:100AE0004FEA174E1FFA87F80121B3FBFEFC250CD5
:100AF0000EFB1C3345EA034508FB0CF3AB4207D958
:100B00007D190CF1FF3002D2AB4200F2E78084463F
:100B1000ED1AA3B2B5FBFEF00EFB105543EA0544F7
:100B200008FB00F8A04507D93C1900F1FF3302D2B9
:100B3000A04500F2D7801846A4EB080440EA0C4018
:100B4000C0E78B4208D9002E00F0AF800021C6E933
:100B500000050846BDE8F087B3FA83F100294BD1C0
:100B6000AB4202D3824200F2B780841A65EB0303E2
:100B700001209E46002EAAD0C6E9004EA7E7C2F18A
:100B8000200C01FA02F3974020FA0CF04FEA174EBE
:100B900021FA0CFC1843BCFBFEF1050C0EFB11CC3A
:100BA0001FFA87F845EA0C4501FB08F3AB4204FA4B
:100BB00002F409D97D1901F1FF3C80F08B80AB4232
:100BC00040F2888002393D44EB1A85B2B3FBFEF057
:100BD0000EFB103345EA034500FB08F3AB4207D98F
:100BE0007D1900F1FF3C71D2AB426FD902383D4410
:100BF000EB1A40EA014178E7C1F1200C8B4022FA60
:100C00000CF71F4320FA0CF405FA01F34FEA174ED4
:100C100025FA0CF51C43230CB5FBFEF91FFA87F8E7
:100C20000EFB195543EA054509FB08FAAA4502FAE5
:100C300001F200FA01F308D97D1909F1FF3047D21A
:100C4000AA4545D9A9F102093D44A5EB0A05A4B27C
:100C5000B5FBFEF00EFB105544EA054400FB08F816
:100C6000A04507D93C1900F1FF352DD2A0452BD95D
:100C700002383C4440EA0940A4EB0804A0FB028986
:100C80004C45C6464D4619D316D05EB1B3EB0E02A5
:100C900064EB050404FA0CFCCA404CEA0202CC40A6
:100CA000C6E900240021BDE8F087314630460EE752
:100CB000AC46EDE6184601E74345E6D2B8EB020E36
:100CC00069EB07050138E0E72846D3E760468FE780
:100CD0008146BAE7614677E708464BE7ACF1020C7C
:100CE0003D4415E702383C4426E700BF704700BF8B
:100CF0002DE9F04FADF5037D8B498C4DF0220AA80C
:100D000004F000FF8A49F02246A804F0FBFE0FCD54
:100D100004AC0FC495E8030084E80300854803F0A1
:100D20004BFB854B186000F0D7FA844804F092FE24
:100D3000002501272C46AB464FF000084FF0000974
:100D40007B1E042B00F26C82DFE813F00500120119
:100D50009C01F8011B0249464046FFF727FE8346E7
:100D6000FFF720FB02460B4640464946FFF7CCF909
:100D7000734E744B0022FFF77FFBFFF717FE3368BB
:100D8000012B044625D164A3D3E9002340464946FC
:100D9000FFF7BCF989468046FFF708FE8346FFF758
:100DA00001FB02460B4640464946FFF7ADF9654B4D
:100DB0000022FFF761FBFFF7F9FD594602460446A2
:100DC000614801F08BFD00234FF49670336004F00E
:100DD000F3FC5E4E3368012B25D151A3D3E90023E8
:100DE00040464946FFF792F989468046FFF7DEFD07
:100DF0008346FFF7D7FA02460B4640464946FFF7BF
:100E000083F9504B0022FFF737FBFFF7CFFD594620
:100E1000024604464C4801F061FD00234FF49670F1
:100E2000336004F0C9FC4A4E3368012B24D1494B8E
:100E3000002240464946FFF769F989468046FFF798
:100E4000B5FD8346FFF7AEFA02460B4640464946DB
:100E5000FFF75AF93B4B0022FFF70EFBFFF7A6FD09
:100E6000594602460446384801F038FD00234FF445
:100E70009670336004F0A0FC374E3368012B24D108
:100E8000364B002240464946FFF740F989468046E6
:100E9000FFF78CFD8346FFF785FA02460B46404676
:100EA0004946FFF731F9274B0022FFF7E5FAFFF734
:100EB0007DFD594602460446234801F00FFD0023FC
:100EC0004FF49670336004F077FC254804F05EFC24
:100ED0000646244804F05AFC002E01DC002819DDE7
:100EE000282169430AAB01F178021A4419441E48CB
:100EF00001F0F4FC4FF4967004F05EFC02261B48EF
:100F000004F044FC0028C8BF0426012004F054FC6F
:100F1000374615E73E46F2E79A9999999999B93F6C
:100F20009A9999999999C93FA06400008066000038
:100F3000906500008C680000380300209368000072
:100F40002803002000002440B36800002C03002088
:100F5000300300200000E03F340300200000F03F99
:100F6000A8660000B0660000CB680000C066000004
:100F7000BC49BD4E0B683268012A18BF012BBB4A21
:100F800012680CBF01230023012A08BF43F00103AC
:100F90001BB9B74B1B68012B68D1B64801F09EFC0A
:100FA000B24AB04900231360B14A33600B6013604A
:100FB0000126B14804F0EAFB002812DD0135032DBB
:100FC000A8BF0025282169430AAB01F178021A4421
:100FD0001944AA4801F082FC4FF4967004F0ECFB2F
:100FE0003E46A74804F0D2FB002812DD013D6B1CF1
:100FF00008BF0225282169430AAB01F178021A448F
:1010000019449E4801F06AFC4FF4967004F0D4FB3A
:101010003E469C4804F0BAFB002817DD28266E43A4
:1010200004D1994846A901F059FCB2460AAB1E44C6
:1010300014AB9E421CD194485AA901F04FFC4FF0CA
:10104000020A4FF4967004F0B7FB05268F4804F0AF
:101050009DFB00287FF759AF0022002340464946F8
:10106000FFF79AFC002818BF04264EE73E46A0E78B
:101070001EAB9E42E5D184486EA901F02FFC4FF0D3
:10108000040ADEE782AB03EBC50353E97E23404647
:101090004946CDE90223FFF737F800220023064630
:1010A0000F46FFF75BFC28B342464B46DDE90201E1
:1010B000FFF72AF806460F46FFF778FC0290FFF785
:1010C00071F902460B4630463946FFF71DF8704B62
:1010D0000022FFF7D1F9FFF769FC029B009022463E
:1010E00059466C4801F0FAFB4FF4967004F064FB2B
:1010F00001260AE728210DEB010301FB05316648B3
:1011000001F0ECFB30463946FFF750FC8346FFF711
:1011100049F902460B4630463946FEF7F5FF5C4B6F
:101120000022FFF7A9F9FFF741FC04464FF496703F
:10113000B04604F041FBB9460426E6E6002200234F
:1011400040464946FFF714FC58B1544801F0C6FB2D
:10115000C82004F031FB01264FF000084FF00009D1
:10116000D3E60022002340464946FFF715FC00283D
:1011700056D04B482246594601F0B0FB4FF49670CA
:10118000E7E728236B4302931CD13B4804F0FEFAA7
:1011900006463B4804F0FAFA002E01DC002813DD75
:1011A0000AF1010ABAF1020FA8BF4FF0000A46ABDC
:1011B00028213C4801FB0A3101F090FB4FF4967066
:1011C00004F0FAFA3E4606E02E4804F0DFFA002862
:1011D000D4BF3E460326029B0AAA13441A4614AB08
:1011E0009A421FD1244804F0D1FA0290244804F016
:1011F000CDFA029B002B01DC00282BDD0AF1010A4D
:10120000BAF1040FA8BF4FF0020A46AB28212548C7
:1012100001FB0A3101F062FB4FF4967004F0CCFA46
:101220003E4672E61EAB9A427FF46FAE124804F05F
:10123000ADFA0290124804F0A9FA029B002B01DCDF
:10124000002807DD0AF1010ABAF1060FA8BF4FF026
:10125000040ADAE70B4804F099FA0028C8BF03260D
:1012600053E600BF280300202C0300203003002099
:101270003403002087690000A8660000E9680000C8
:10128000B0660000B86600000A690000C066000091
:10129000000024400E690000456900005469000008
:1012A0006B69000089690000014B01221A607047D8
:1012B00028030020014B01221A6070472C030020F4
:1012C000014B01221A60704730030020014B0122BC
:1012D0001A6070473403002010B54F4C40F21112D1
:1012E0000B21204604F030FA4C4804F07BFA4C49BC
:1012F0004C4B4B6020464FF400638B6004F03EFA89
:1013000040F211120C21204604F01EFA464804F067
:1013100069FA4649464B4B6020464FF480538B6038
:1013200004F02CFA40F211121821204604F00CFAB5
:10133000404804F057FA4049404B4B6020464FF07C
:1013400080738B6004F01AFA40F2111219212046C2
:1013500004F0FAF93A4804F045FA3A493A4B4B603E
:1013600020463A4C4FF000738B6004F007FA206877
:101370004FF48872032104F0E7F920684FF47032CB
:10138000032104F0CDF93249324B4B602068082329
:101390008B6004F0F3F920684FF48872042104F0A4
:1013A000D3F920684FF47032042104F0B9F92A49C6
:1013B0002A4B4B60206810238B6004F0DFF9206813
:1013C0004FF488721C2104F0BFF920684FF470328A
:1013D0001C2104F0A5F92249224B4B6020684FF0F4
:1013E00080538B6004F0CAF920684FF488721D2185
:1013F00004F0AAF920681D214FF4703204F090F92E
:1014000019491A4B20684B60BDE810404FF000535B
:101410008B6004F0B3B900BFA0620000A8660000B2
:10142000C8020020B7570000B0660000D4020020B8
:10143000E3570000B8660000E0020020DF5700001C
:10144000C0660000EC020020E157000038030020D5
:10145000F8020020A912000004030020B5120000C9
:1014600010030020C11200001C030020CD12000058
:101470002DE9F04F91B08B46029092461C46002514
:101480009AF8000008B928465EE325280AF101070A
:1014900007D0029B594698470028C0F25583013572
:1014A00010E2182200210AA804F037FB9AF8013054
:1014B000252B78D00022944616469646104639468B
:1014C00017F8013B2B2B00F09D8000F29480202B1D
:1014D00000F09B80232B00F09A8028B19DF830000B
:1014E00040F004008DF83000BEF1000F05D09DF8EB
:1014F000300040F008008DF830002EB19DF830002B
:1015000040F010008DF83000BCF1000F05D09DF8C0
:10151000300040F020008DF830002AB19DF83020D6
:1015200042F040028DF830209DF8302002F0440057
:10153000442803D16FF386128DF830209DF83020B7
:101540002A2B42F080028DF830207BD19DF831208B
:1015500042F001024B1C8DF831201A782E2A9DF89A
:1015600031200CBF0121002161F341028DF83120AF
:1015700074D15A782A2A6AD0013300210A261846E3
:1015800010F8012BA2F13007092F40F28E809DF850
:1015900030200E91C2F3400040EAD17161F3410264
:1015A0008DF830205AE00AF102078DF833309DF8AB
:1015B0003130D90740F1498154F8049BB9F1000F4B
:1015C00007DA9DF8302042F004028DF83020C9F18E
:1015D00000095A0740F1428154F8048BB8F1000F1A
:1015E00080F241819DF831306FF341038DF8313045
:1015F0004FF0FF3837E12D2B0CD0302B7FF46DAF3F
:1016000001225CE74FF0010E59E7012657E74FF042
:10161000010C54E7012052E70CFB0202303A33463A
:101620001E4616F8010BA0F13007092FF4D9994294
:1016300093D09DF830100D92D20F62F341018DF8D6
:1016400030108AE70B4600224FF00A0CE8E79DF8BD
:10165000312042F004028DF8312002331F4617F882
:10166000012B6C2A41D025D8682A2BD06A2A46D073
:101670004C2A4CD01F4617F8012B9DF831308DF8BD
:101680003320782A00F2D980572A4DD8412A03D036
:10169000453A022A00F2D1809DF83230042262F3EA
:1016A00002038DF8323001239EE006FB0121303920
:1016B000034664E7742A26D07A2ADBD19DF83130BC
:1016C00006220DE05A78682A9DF8312006D10121C2
:1016D00061F3C6028DF831209F1CCCE7134602222D
:1016E00062F3C6038DF83130C5E75A786C2A9DF84D
:1016F000312001D10421EBE713460322F0E79DF8E6
:1017000031300522ECE79DF831300722E8E7BDF8DB
:10171000303023F4F04323F0020343F4804343F0DA
:101720000203ADF83030A6E7A2F15801202900F2FB
:10173000848001A050F821F0FD1700003B18000044
:101740003B1800003B1800003B1800003B1800004D
:101750003B1800003B1800003B18000099160000E1
:101760003B180000FD170000BD170000991600008F
:1017700099160000991600003B180000BD170000E4
:101780003B1800003B1800003B1800003B1800000D
:1017900005180000FD170000211800003B1800008C
:1017A0003B180000211800003B180000FD17000046
:1017B0003B1800003B180000FD1700009DF8321098
:1017C000012003F0780360F30201402B8DF8321002
:1017D00002BF9DF8301041F001018DF83010632AEE
:1017E00031D1003B18BF01239DF83020C2F34001E6
:1017F0000B4363F341028DF83020D8E69DF8321098
:101800000220DEE79DF8322003F07803A3F14000C8
:10181000032161F3020243428DF832204341E3E7A2
:101820009DF83220032113F0780F61F302028DF846
:10183000322014BF01230023D6E79DF8303043F057
:1018400001038DF830300023CEE79DF93020002AC7
:10185000B4BFDDF834904FF0FF39BAE69B077FF54F
:10186000C7AEDDF838809DF831200023CDE90D3377
:101870009DF8323003F00703012BC2F3C30236D1C7
:10188000D31E042B20D8DFE803F00307071F1F0037
:1018900054F8040BC11704E0073424F00704F4E8FB
:1018A0000201CDE90A019DF8303013F0030654D04F
:1018B00002983B465246594603F0E6FF0028C0F224
:1018C00043810544BA46DBE554F8040B012A4FEA8C
:1018D000E071CDE90A0105D19DF828300A93002373
:1018E0000B93E0E7022ADED1BDF92800D2E7022BF4
:1018F00023D1D31E042B13D8DFE803F0030A0A1206
:10190000120020680A900021231D0B911C46CAE793
:10191000073424F00703F3E80201CDE90A01F5E7F3
:1019200054F8043B0A93012A4FF000030B93D3D0E1
:10193000022AB8D1BDF82830D0E7042B07D10734EC
:1019400024F00704F4E80201CDE90A01ABE7032B18
:1019500004BF54F8043B0A93A5E79DF833007828A8
:10196000B0D8622822D825283FF493AD5828A9D1B1
:101970000DF126030093DDE90A0104AB0CAA03F084
:1019800038FF8246B8F1000F0DF126000CDB9DF800
:101990003020A0EB0A036FF3861298458DF83020B3
:1019A00002D9A8EB03030D9380463DE06338152868
:1019B00088D801A151F820F0391A00009D1A0000C2
:1019C000C5180000C5180000C5180000C5180000A3
:1019D0009D1A0000C5180000C5180000C5180000B9
:1019E000C5180000FB1A0000C91A0000CD1A00003B
:1019F000C5180000C5180000111A0000C518000025
:101A0000C91A0000C5180000C5180000C91A000056
:101A1000B8F1000FDDF828A00ADB4146504604F07B
:101A20005CF80AEB00080026BAF1000F0CD149E778
:101A3000504604F04BF8F4E70A9B8DF8103000266E
:101A40000DF111080DF1100AA8EB0A0306B10133DC
:101A50009DF83220D0066BD5023352060D9948BF4F
:101A60000E9A0B4448BF9B18B9F1000F79DD9DF821
:101A70003020A9EB0309C2F380030393530770D40A
:101A8000500664D546B1029B594630469847002817
:101A90005ADB039B01351E46302359E01E0711D443
:101AA00013F0100618BF2026DDE90A23002A73F17F
:101AB0000001BFF65DAF524263EB4303CDE90A2359
:101AC0002D2655E72B26EFE7002651E70A9848B365
:101AD0000DF1260300930CAA04AB002103F089FE4C
:101AE000BDF8323003F0EF0343F4F04343F010034A
:101AF0008246ADF83230002644E70A9B072A3FF6BB
:101B0000E1AEDFE802F00D04060D08080D0D1D70B2
:101B1000D8E61D80D6E62846E917C3E90001D1E6DC
:101B20001D60CFE6DFF8C4800646A8F1050A8BE702
:101B3000110748BF013390E7184603935946029BAB
:101B400098470028039B04DA11B0BDE8F08F2023EA
:101B50004D444A46002AA5EB090109F1FF39EBDCA7
:101B60000D4636B1029B5946304698470028EBDBBC
:101B700001359DF83230D90601D41A0706D5029BEB
:101B80005946302098470028DEDB01359DF8323079
:101B9000DB0607D59DF83300029B5946984700287D
:101BA000D2DB01350D9E2E44731B002B16DC0298F0
:101BB00043465246594603F067FE0028C4DB0544FD
:101BC000A944A9EB0503002B7FF77CAE029B594685
:101BD000202098470028B7DB0135F2E7029B5946E1
:101BE000302098470028AFDB0135DDE7966900001B
:101BF000014803F003BC00BFC866000008B5D0B1BF
:101C00004368042B11D100220368BFF35B8F53E8B4
:101C1000001F012903D143E800200028F7D1BFF3BA
:101C20005B8F074808BF104608BD3BB1006802F053
:101C300097FD0020F8E76FF4E040F5E70148F3E78F
:101C4000E98FFFFFEA8FFFFF10B5044618B90D4B6F
:101C50000D485B689847616808290DD031F004038E
:101C60000AD011F0020108D00848214604F0AEF96C
:101C7000002323600023636010BD2068142203F05A
:101C80004CFFF7E7DC000020976900003C030020D0
:101C900010B5044618B9164B16485B689847636838
:101CA000042B23D0082B21D0CBB92368BBB9124811
:101CB0004FF0FF324FF0FF33214602F0A3FC08B98A
:101CC00023681BB90A4B0D485B68984720681422AB
:101CD000002103F022FF636843F002036360206881
:101CE00004F09DF9636843F00103636010BD00BF19
:101CF000DC000020976900003C030020BD69000063
:101D000008B508B34368042B10D101220368BFF360
:101D10005B8F53E8001F002903D143E8002000280F
:101D2000F7D1BFF35B8F0BD1002008BD53B1006822
:101D30004FF0FF324FF0FF3302F094FC0028F3D055
:101D40000348F2E70348F0E76FF4E040EDE700BF37
:101D5000E98FFFFFEA8FFFFF08B5064906484023D9
:101D6000142204F018F9BDE808400449044803F0BF
:101D7000A7BB00BF580300203C030020E066000022
:101D8000D06600002DE9F84FB0F8189019F0080857
:101D9000044693460DD001290CBF49F0100949F0C3
:101DA0002009A0F818908BF31188BFF36F8FBDE85E
:101DB000F88F09F00709022907D1204603F09DFD9D
:101DC0000028F0D00128238B50D16769218B002F88
:101DD00015DA256821F00701C4E9008841F0010106
:101DE00021830026218B01F0070ACA4502D0A3688F
:101DF000002B5CD10DB9002E74D0002358E001F007
:101E000007035A1F012A20D821F00701062B256855
:101E100089B2C4E900880CD1002D2B4638BF0023BD
:101E20002BB1628B1B6801326283002BF8D141F029
:101E300002012183204603F060FD06460028D1D030
:101E4000238B43F020032383CBE7042B0CD121F019
:101E5000070189B22183204603F04FFD0546002883
:101E6000BFD041F0200121830025BAE7032809D122
:101E7000226923F00703166843F006032383002535
:101E80002F46AFE7042806D1226923F007035668DE
:101E900043F00403F2E7052806D1226923F0070383
:101EA000966843F00503E9E700252E46E8E701239D
:101EB00041F0080121838BF31188BFF36F8F03BBBF
:101EC000002D33D116B121492046B0474FF02003F1
:101ED000EFF3118B83F31288BFF36F8F238B23F003
:101EE00008032383238BDA0628D523F010032383EA
:101EF0000121B4F8189009F0070900297FF45BAFBD
:101F000051E7A1680029DBD00B68D1F804B0002BA1
:101F100038BF0023994652463B462046D847B9F180
:101F2000000FCDD0D9F800304946EEE729463B46B0
:101F3000524620462D6803F0FCFCC1E713F0200157
:101F40001EBF23F0200323830221D2E75F59000044
:101F50002DE9F84305464FF02003EFF3118683F394
:101F60001288BFF36F8F104B1C68002C38BF002401
:101F70009CB10E4FDFF838804FF00C09D4E90132E4
:101F8000002D08BF13462BB198F8142009FB02F26C
:101F9000B85C98472468002CF0D186F31188BFF311
:101FA0006F8FBDE8F88300BF580800206408002048
:101FB000C009002000F01F0301229A400A4BBFF322
:101FC0005B8F400903EB800050E8003F43EA0201C9
:101FD00040E8001CBCF1000FF6D1BFF35B8F1A4242
:101FE00014BF0120002070477008002030B51D4B41
:101FF0001D7DBFF35B8F05F01F0301229A401A4B32
:10200000690985B0D04303EB810353E8001F01EA5F
:10201000000443E8004CBCF1000FF6D1BFF35B8F26
:10202000114217D0114C0C2202FB054207CA01AB2A
:1020300083E807000E4A7AB193E8070003F089FDB0
:102040000020FFF785FF0C236B430022E118E250CC
:10205000C1E9012205B030BD82F31188BFF36F8F53
:10206000EEE700BFC00900206008002064080020DF
:10207000535B00002DE9F041374BDFF8F4801C7D05
:1020800088B007462046FFF795FF60B96E463A468E
:102090002146304603F0EBFC96E807000C2505FBD3
:1020A000048585E807000C23634308EB030218F856
:1020B0000300650904F01F06C8B37B1C0FD0D2F8DB
:1020C00008E02648264A4FF4004C00210023ECFB90
:1020D0000E01FEF793FC0121381A04F07CF802F09F
:1020E000DFFB0120FFF734FFBFF35B8F1D4B0122A5
:1020F000B24003EB850353E8001F114343E800108F
:102100000028F8D1BFF35B8F0C2303FB048494E811
:10211000070005AB83E80700134A1AB193E80700EC
:1021200003F004FDFFF762FF02F094FD01200F4A67
:10213000BFF35B8F0123B340DB4302EB850555E81A
:10214000002F1A4045E800210029F8D1BFF35B8F2A
:1021500008B0BDE8F08100BFC00900203F420F0079
:1021600040420F00600800202D5B00007008002036
:10217000640800200B6801330B60014B1B68184793
:1021800020000020014B1860704700BF2000002095
:1021900007B50B46002102460191034801A9FFF74C
:1021A00067F903B05DF804FB7521000008B54FF036
:1021B0002002EFF3118382F31288BFF36F8F00F0D8
:1021C000E3FB034803F046FC00F00AF8FCE700BF1D
:1021D000EA690000014910220A60704710ED00E032
:1021E00072B6404080F31188BFF36F8FBFF34F8FFB
:1021F00030BF62B6BFF36F8F704700BF72B6494001
:1022000081F3118820BF80F3118862B6704700BF48
:1022100001B572B60B4A906900281EBF002191617A
:1022200003F0B2FE62B6EFF30580A0F110004FEAB2
:10223000C0000549014409C99847BDE80140034968
:1022400008470000C0090020006300003D24000092
:1022500030BFFFF7FDBF00BF12498A684FF0300062
:102260001044EFF3098C80E8F01F202080F31288DF
:10227000BFF36F8F0C4F4FF00066CA698A603E60F3
:10228000506F0023536780F3118804B5104600F0A7
:1022900075FABDE8044002F1300090E8F01F8CF3BD
:1022A00009887047C009002004ED00E01EF0040F0B
:1022B0000CBFEFF30880EFF30980816911F8021C6D
:1022C0000229FFD001B503F0E3FB01BD43B2002BAF
:1022D00008DB012200F01F0002FA00F05B09024A4D
:1022E00042F82300704700BF00E100E0054B4209BF
:1022F00000F01F0053F82220012303FA00F01040E1
:10230000704700BF00E100E043B2002BA8BF03F11B
:10231000604301F10101B8BF064B4FEA4111ACBF68
:1023200003F5614300F00F00C9B2B4BF195483F83C
:102330000013704714ED00E00B4A08B50B4B22F078
:102340007F029A60BFF34F8FBFF36F8FD3F888205F
:1023500022F47002C3F8882002F0B6F802F0DAFF27
:1023600000F0A0F902F0BAF80000000000ED00E073
:10237000094A0A49936809689967094958674B6887
:1023800043F080534B60002383F31188BFF36F8FBA
:102390009368986F704700BFC00900200068000074
:1023A00000ED00E042F8203C009B42F81C3C0A494A
:1023B000019B42F8183C029B42F8143C21F00101B9
:1023C0004FF0807342F8043C42F8081C0023203A86
:1023D00002654367704700BF795A00000B4A034605
:1023E000906890B113F1160F406E05D0A0F1200255
:1023F0009A4206D8834204D281422CBF0021012197
:1024000000E00021002908BF00207047C00900201B
:1024100008B5094B98600D46144600F0AFF9204608
:1024200085F30988002163B681F31188BFF36F8FAC
:102430000022002303F020FBC0090020044B996810
:10244000D869884203D003494FF080520A60704730
:10245000C009002004ED00E0EFF30880EFF30981EC
:1024600001B5724600F092F801BD00BF002080F374
:102470001488BFF36F8F03F0D1FE00200D49086070
:10248000BFF34F8F0C4880F3088800F027F9202015
:1024900080F3118809484FF40261401880F30988DD
:1024A000EFF314800221084380F31488BFF36F8F89
:1024B000FFF742FF94ED00E0E013002060150020DC
:1024C00038B5194B14469A6A9A6A9A6A0546900773
:1024D00019D5586B9A6A120615D519B19A6A22F065
:1024E00080029A629A6A9A6A9A6AD1060ED49B6AA4
:1024F0009A070BD400200C4A936A43F0FF039362BF
:102500000023237038BD6FF01500EBE7064B5B68C6
:102510001B05EFD52946FFF761FF0028EAD080F3BD
:1025200009880220E7E700BF00ED00E00D4B9A6A42
:102530009A6A9A6A920508D59A6B9A6A120404D527
:1025400018B19A6A22F400429A62064B9A6A9A6A11
:10255000D20558BF9A6A9A6A002042F47F429A6272
:102560000870704700ED00E0074B9A6A9A6A9A6A11
:102570009A6A9A6A9A6A9A6A6FEA02426FEA124201
:102580009A620020704700BF00ED00E070B53E4B3E
:102590005B688AB00D46C3F30803002686F31188F2
:1025A000BFF36F8F02F07F41B1F17F4F11D102F085
:1025B0000C0108290DD0120701D40546012600227E
:1025C000033B8DF80720032B57D8DFE803F0044EB8
:1025D000524B3546F3E72C4BDC6A14F002044CD125
:1025E000DA6A002A18DBDB6A5B0015D5AB6933F8C1
:1025F000022C4DF602739A420DD003F1604303F6AC
:1026000026631B7803B30DF1070201212846FFF76B
:1026100057FF044600E02C689DF8073093B920224C
:10262000294602A803F06EFA099B46B3C3F30802D9
:1026300022B96FEA53236FEA4323099302A9204684
:1026400003F024FA0AB070BD104B1B782BB10DF1CA
:1026500007010120FFF76AFFDBE70D4B1B889BB2E8
:10266000002BD9D0FFF780FFD3E70DF1070200213F
:10267000CCE70DF107010020ECE70024CCE723F4C0
:10268000FF7323F00103D8E700ED00E029ED00E03F
:102690002AED00E0024A536943F01003536170478A
:1026A00000ED00E0044800232021C2180133302B44
:1026B00082F80013F9D1704700E100E0064A116882
:1026C0000023C1F3072118468B4200D17047936065
:1026D00010610133F8E700BF90ED00E008B572B675
:1026E000002383F31388FFF7E9FF144B4FF0FF3209
:1026F000C3F88020C3F88420C3F88820C3F88C2056
:10270000C3F89020C3F89420C3F89820C3F89C2005
:10271000C3F88021C3F88421C3F88821C3F88C2131
:10272000C3F89021C3F89421C3F89821C3F89C21E1
:1027300062B6BFF34F8FBFF36F8F08BD00E100E0BB
:10274000064B9B68834207D1EFF3058323B1044A0C
:10275000536843F08053536002F052BBC00900201D
:1027600000ED00E0024B034A0348012100F068B885
:102770000000042000000020F4660000426E054BBB
:10278000203A1A60044A2021C3E9011218460121A7
:1027900000F060B87408002000000B15F0B51E4F63
:1027A00000268E4201DB1046F0BD446884B353B16D
:1027B00004F1FF3C14EA0C0F18D11F2C16D9056840
:1027C0001CEA050F12D1202C0568D0F808C0D2B23F
:1027D0000FD9B4F1004F0ED8013CB4FA84F4C4F11F
:1027E0001F046400072A4CEA040406D96FF015029E
:1027F000D9E70824F6E73E24F4E725F01F05154342
:1028000045F0100544F00104BA60FD6001323C61FE
:1028100001360C30C5E700BF90ED00E0034B052208
:102820005A60BFF34F8FBFF36F8F704790ED00E09A
:10283000BFF35F8F014B00225A60704790ED00E0BC
:1028400010B5034C01232278FFF7A8FF207010BDBC
:10285000100A002008B5084A00231278FFF79EFFEF
:1028600010F1160F03D0054B0022072800DD08BD2C
:1028700098601A610130F8E7100A002090ED00E03E
:1028800013490868082810B51ED8FFF7D1FF114C6E
:1028900049680022904201F10C0105D10E4B1870DD
:1028A000FFF7BCFF002010BDA26051F80C3C23F0E4
:1028B0001F03134343F01003E36051F8043C43F05B
:1028C000010323610132E5E74FF0FF30EBE700BF82
:1028D0000067000090ED00E0100A00200FB407B57B
:1028E00004AB022153F8042B04480193FEF7C0FD0A
:1028F00003B05DF804EB04B0704700BFB55A0000A8
:10290000014B1860704700BF2400002002390129E4
:1029100002D8034B1B6818474FF0FF30704700BFC9
:10292000240000204FF02003EFF3118183F312887D
:10293000BFF36F8F0F4A0123C2F840354FF080423A
:10294000C2F878350C4A1268082A08D10B4A126876
:10295000052A04D80A48825C0AB10A4A13604FF07B
:1029600080430122C3F8802581F31188BFF36F8F64
:102970000020704700E001403001001034010010D9
:10298000226A0000380600404FF08043C0B2C3F80E
:102990001C05BFF34F8F0549054BCA6802F4E0627E
:1029A0001343CB60BFF34F8F00BFFDE700ED00E0A6
:1029B0000400FA0520B1034B800143F001031847DE
:1029C000704700BFA06600000E4A70B5841AA310BD
:1029D0000D4C5C430546E4B20C2000FB04200E467F
:1029E0004021084403F0C9F8011E05DB074B03EB47
:1029F000C40463689847002128463346BDE8704008
:102A0000184700BF90080020B76DDBB6386700009C
:102A10002DE9F041104E841BA310104C5C43E4B22E
:102A20000C256543804605F140000F4630444021A7
:102A300003F0BCF8011E09DB094A7319C3E90E272C
:102A4000084B53F83430BDE8F041184740463B4648
:102A5000BDE8F041184700BF90080020B76DDBB615
:102A60000F5C000038670000002270B501210446A9
:102A70001046FFF749FC0020FFF728FC0F4800F044
:102A8000EBFE0F4B984215D103F0EEF926690D4984
:102A9000304602F081FF00280BDB012535642469F4
:102AA000084904F11C0002F077FF002801DBE5640F
:102AB000002070BD6FF00400FBE700BFFD2A00009E
:102AC0000000AD0B4867000001460C2309484B434A
:102AD00070B5C418D4E90E5600224033A2631844DE
:102AE00003F082F82DB132462B460348BDE8704012
:102AF000184770BD900800208862000010B10128BE
:102B000004D07047034B1B6C5B0701D1FFF7DCBFA0
:102B1000704700BF9008002008B54FF02003EFF386
:102B2000118183F31288BFF36F8F124A136843F049
:102B3000020013F0010310600CD04FF08042D2F875
:102B40000C34D2F80C2413F0010303D00A4803F02C
:102B50004BF8012381F31188BFF36F8F23B1BDE8D8
:102B600008400020FFF7B0BFBDE80840012000F09A
:102B700083BE00BFE0080020D0080020094BBFF34F
:102B80005B8F53E8002F22F0020143E80010002879
:102B9000F7D1BFF35B8FD30702D4012000F09EBEB4
:102BA000704700BFE00800201FB500220123CDE9D7
:102BB0000223094ACDF800D06B46CDF804D003F0CB
:102BC0004CF8002805DB4FF480420023684602F0F1
:102BD00089F905B05DF804FB2D5C00002DE9F84390
:102BE0003A49BFF35B8F0646012251E8003F41E8B6
:102BF00000200028F9D1BFF35B8F33B93449354841
:102C00004B60CB608A6002F0DAFE731E012B32D873
:102C1000012E07D14FF08043D3F81C3403F0030397
:102C2000012B28D003F0ABFA044618B92A4B1B78C5
:102C3000002B44D14FF02003EFF3118583F312886A
:102C4000BFF36F8F0124254FDFF89480DFF8949055
:102C50004FF08042D2F81834D2F81824D2030CD5A1
:102C600003F00303012B01D0012E06D10CB385F331
:102C70001188BFF36F8FBDE8F883ACB12846FFF72A
:102C8000BDFA4FF08042D2F81835002BE0D13968F8
:102C90000029DDD03B603B680123C2F81835C8F835
:102CA0008031C9F80030D3E70021212002F088F8F4
:102CB000E7E74FF080430222C3F80423DBE74FF03D
:102CC00080430222C3F808230546BCE7E40800203D
:102CD00080080020AC080020210E002004010040E4
:102CE00000E100E00800004008B5084B0848186003
:102CF00003F025F938B10748FFF702FE0548FFF752
:102D000041FA002008BD6FF01200FBE7E808002040
:102D1000E8620000192D00000A2838B5074D044666
:102D200004D1286883680D215B6898472868836808
:102D3000E1B25B689847204638BD00BFE808002034
:102D4000420970B5034602D0012A1DD070BD0F4E56
:102D5000326951680029F9D00C6803F01F0301257E
:102D6000002C05FA03F538BF00248A682A4002D0F7
:102D70004B6830469847002CE8D02368002B38BFBA
:102D8000002321461C46F0E7014EE1E7A062000067
:102D9000B862000030B54068047B01F01F05B2F551
:102DA000005F45EA441585B04FF0000404D1284681
:102DB00001F07AF8002032E0B2F5804FCDE902440C
:102DC0002FD1B3F5003F0CBF042305238DF8083045
:102DD000836823FA01F1C9072FD4B2F5A03F2CD1A3
:102DE0006A09012A05F01F031C4A03F5E07318BFA6
:102DF0004FF0A04252F82330DB071ED40DF1070438
:102E00002146284600F0BCFF154B984214D12046BD
:102E100001F000F8134B98420ED06FF00B0005B094
:102E200030BDB3F5C02F05D0B3F5003F0CBF022372
:102E30000123CBE70323C9E703940023194602AA21
:102E4000284600F07BFE074B984204D1012128461A
:102E500000F0E6FFAEE76FF00400E0E7000300508B
:102E60000400AD0B0000AD0B10B500F0C3FF04462D
:102E700068B900F097FF084B98420AD107482146ED
:102E800000F078FF224605210620FFF73DFA0020DA
:102E900010BD6FF00400FBE70000AD0B412D0000FA
:102EA0002DE9F04347683B7B01F01F0585B00E46D6
:102EB00045EA43151446CAB902A9284600F060FF46
:102EC0000446284601F012F8484B984204D06FF0AF
:102ED000040005B0BDE8F083844205D19DF80800E8
:102EE00000F092FFA042F2D10020F2E74FF000097B
:102EF0000DF103013046CDE9029900F041FF4B4648
:102F0000804602AA4946284600F018FE374B9842F0
:102F100002D06FF01500DCE7804503D19DF8030077
:102F200000F072FFA3054ED5314B324A2340934245
:102F30003AD00CD8062B14D004D893B1022BE8D188
:102F400004230EE0B3F5801FE3D1012309E02A4AF0
:102F500093422BD0B3F5A00F2AD0B3F5800FD8D170
:102F600002238DF8043084F48073C3F30023E00659
:102F70008DF8053054BFC4F34013032321058DF8A9
:102F8000063017D57B68012101FA06F6C3F80865FB
:102F9000002201A9284600F07DFE144B984214BF80
:102FA0006FF01500002094E70723DAE70523D8E740
:102FB0000323D6E7620541BF7B68012101FA06F6CB
:102FC000C3F80C65E4E7E3064FF0000354BFC4F315
:102FD000401403241A4601A928468DF8044000F045
:102FE000ADFD024B98423FF47FAF92E70000AD0B7E
:102FF0000600F0000600100002004000F0B54B791A
:10300000012B26D0032B21D110268B79032B1DD128
:10301000CC790CB1012C19D10A7912B1022A15D13F
:103020000E220B684568B3F5164F2D6865D02DD874
:10303000B3F5165F64D016D8B3F5966F62D00AD890
:10304000B3F5967F61D0B3F5167F61D06FF0850040
:1030500052E00026D9E7B3F5166F5CD0B3F5965F62
:10306000F4D1374B3CE0B3F5E14F57D007D8B3F577
:10307000615F55D0B3F5964FE8D1324B30E047F65B
:103080001227BB42E2D14FF4000329E0B3F5613FC0
:1030900048D013D8B3F5963F47D009D84DF6C0278E
:1030A000BB4244D0B3F5614FD0D14FF46B0317E06E
:1030B000B3F5E13FCAD14FF0EB7311E0B3F5612FE7
:1030C00038D008D8204FBB4237D0B3F5E12FBDD15F
:1030D0004FF0E86304E01D4FBB42B7D14FF080537F
:1030E000C5F82435036903C9344322430433C5F8C2
:1030F0006C2583E803000020F0BD4FF41D03EFE7CB
:10310000134BEDE74FF49E23EAE74FF4A033E7E7D4
:103110004FF41C33E4E74FF41D23E1E70D4BDFE7E9
:103120000D4BDDE74FF06C73DAE70C4BD8E74FF44B
:103130006503D5E74FF07063D2E74FF08063CFE7C8
:1031400000B0130000A04E0090D0030040420F00DA
:103150000050270000C0750000F03A0000903A01CE
:1031600000F01F0240090128044B02F5E07218BF6D
:103170004FF0A043890043F822107047000300502D
:10318000F8B5066905460F4602F0F9FF10B92C4B59
:103190001B7883B94FF02003EFF3118483F3128877
:1031A000BFF36F8F284602F00EFE28BB84F3118810
:1031B000BFF36F8FEEE76424284602F004FE70B977
:1031C000012002F05CFE013CF6D10021212001F03B
:1031D000F7FDF0E784F31188BFF36F8FF5E74FF049
:1031E0002003EFF3118483F31288BFF36F8F284617
:1031F00002F0E9FD0028EDD006F8107F69680B6841
:103200000122C3F84465C3F848250022C3F82021F1
:10321000D3F82001C3F85821D3F858214A68D206C0
:1032200041BF0822C3F800254FF48002C3F80423ED
:1032300001229A6084F31188BFF36F8FF8BD00BF3D
:10324000210E002000F01F0240090128044B02F566
:10325000E07218BF4FF0A043032143F822107047DB
:103260000003005000F01F0140090128044B4FF0FB
:10327000010218BF4FF0A0438A40C3F808257047E9
:10328000000300502DE9F041D0F804800769D8F818
:1032900000400023C4F80035386045680646E868F9
:1032A000421C04D0FFF7DEFFE868FFF7CBFF286978
:1032B000431C06D02B7F002B14BF03210021FFF7F6
:1032C0004FFF6869421C04D0FFF7CCFF6869FFF725
:1032D000B9FFA869431C06D06B7F002B14BF0321E4
:1032E0000021FFF73DFFD5E903122B68C3F80C1549
:1032F000C3F81425D5E90512C3F808153169C3F8D8
:10330000102504313046FFF779FE0546002846D1E6
:10331000D8F80430990719D507F1120000F0E2FE41
:10332000224B98423ED1B87CC30003F1804303F5A1
:10333000F83304F10C0204F59071C3F81015C3F8CA
:1033400014251B4A01238340C2F804350823C4F81E
:10335000003598F808305BB9C4F81031D4F8103152
:1033600007F11103C4F834350123C4F8383523605C
:10337000D8F804309A075CBF4FF48072C4F8042375
:10338000DB0644BF4FF48003C4F804331037002336
:10339000C4F84475C4F848350123A360E3602846A7
:1033A000BDE8F0816FF00405F9E700BF0000AD0B48
:1033B00000F00140194970B5044622F07F460868C4
:1033C000C1E90023A6F50013101AB3F5400F4FF022
:1033D00000050AD2124B19680A060B0A9219114904
:1033E00043F10003C1E90023012501F00DFFA30013
:1033F00003F1804303F58833D3F84025B2420BD163
:103400001DB94FF40002C3F84025074B4FF480303C
:1034100000FA04F4C3F8444370BD00BFB8010020B3
:103420000C090020A00100200010014010B501236C
:103430008340114ABFF35B8FDC4352E8001F01EA6F
:10344000040C42E800CEBEF1000FF6D1BFF35B8F53
:103450004FF4803202FA00F002F1804202F580520D
:10346000C2F80803BFF35F8FBFF36F8F0B4214BF27
:103470000120002010BD00BF080900200123124ACE
:10348000BFF35B8F834052E8001F194342E8001CE2
:10349000BCF1000FF7D1BFF35B8F0C4A4FF48033C0
:1034A0008340C2F804330A4BBFF35B8F1B68BFF342
:1034B0005B8F23FA00F0C30742BF064B4FF4003284
:1034C000C3F80021704700BF080900200010014028
:1034D0000409002000E100E00D4B1B68190A1806E2
:1034E000BFF35F8F0B4BD3F80435C01841F10001D7
:1034F000B3F5801F0AD2084BD3E90023994208BFD5
:10350000904203D210F1807041F10001704700BF7A
:103510000C09002000100140A00100202DE9F04F0F
:1035200085B016461F460546FFF780FF0190FFF75E
:10353000D3FFB94208BFB0427FD2B6EB000867EBB9
:10354000010900234FF080724B4508BF4245C0F08F
:103550008580444B03EB0513D3E902239F4208BF48
:10356000964254D04FEA85094FF4803B09F18049D7
:1035700005F150080BFA05F209F588394FEA880879
:103580001FFA88F80292384AD9F8400526F07F439E
:1035900008F1804808F588381C469346D2F804A5FF
:1035A000A0EB0A0020F07F402AF07F410128C9F8F3
:1035B000401505D10393132002F02BFE2A4A039BEA
:1035C00002990AF1020CA4EB0C0020F07F40B0F548
:1035D000000F88BF64460020C8F80000D8F800003B
:1035E000CBF8441324F07F40C9F84005DBF804050C
:1035F000824506D0201A023820F07F40B0F5000F37
:1036000019D8E41A24F07F44321947F10003154C0D
:10361000290104EB0510C0E902230E9A0F9B6250AA
:1036200043600024019B13B12846FFF727FF204683
:1036300005B0BDE8F08F2046B0E701230B4ABFF389
:103640005B8FAB4052E8001F194342E8001000288E
:10365000F8D1BFF35B8F32463B46D8E76FF01504D5
:10366000E0E700BFA801002000100140040900208D
:1036700073B5194B194D00244FF0FF304FF0FF3157
:10368000C5F80845C3E902014FF48033C5F8043397
:10369000134B02264FF400320121C5F804631120B8
:1036A000C3F880212246FEF72FFE1120FEF70EFE02
:1036B0000C4A012313600C4A2B6013600B4B0C4A1D
:1036C0000093019400232046FFF728FF3046FFF7C0
:1036D00085FA204602B070BDA8010020001001400C
:1036E00000E100E00810014008090020B5330000A7
:1036F000FFFF7F002DE9F743344CD4F804339A07D9
:1037000009D5334B1A6832B100221A60314A1B685E
:103710001368013313604FF02003EFF3118283F33A
:103720001288BFF36F8FD4F80433DB0312D5BFF3D5
:103730005B8F294B53E8001F21F0010043E800068E
:10374000002EF7D1BFF35B8F244B002936D11968C7
:10375000002933D1002382F31188BFF36F8F53B355
:10376000FFF7BAFE06464FF02003EFF3118083F314
:103770001288BFF36F8F1A4BD3E90289494508BFFE
:1037800046454FF000021ED34FF0FF364FF0FF3793
:10379000D3E90015C3E902671A604FF48033C4F817
:1037A000483380F31188BFF36F8F21B100954246F3
:1037B0004B460020884703B0BDE8F0830021196024
:1037C0001B680123C7E71146EBE700BF001001406B
:1037D000041101400C09002004090020401101409F
:1037E000A8010020144B13B5B0F1FF3F08BF1846E5
:1037F000441E002C1EDD9C42A8BF1C46FFF76CFE39
:103800000E4B0F49D3E90023801AB0F5000F28BFF3
:1038100000240130044408480091844228BF044633
:1038200012194FF00000019043F10003FFF776FEFC
:1038300002B010BD0024E1E7FFFF7F00B8010020C7
:10384000B533000008B5FFF747FE024B1B68C01AEE
:1038500008BD00BFB8010020044B1A7922B901222B
:1038600018609A800248704702487047100900208B
:103870000000AD0B0C00AD0B10B1012820D070473B
:103880004FF08043D3F81824D3F8181411F4803F74
:10389000194611D002F00302012A0DD1C3F81825F0
:1038A0000C4B00221A601B684FF080430222C3F8C1
:1038B000042301229A6070470023C1F81835EFE70E
:1038C000054B00221A601B684FF08043C3F80403C5
:1038D00018607047040100400001004038B510B185
:1038E000012818D038BD4FF080430222C3F80823C6
:1038F000184A10601268184A0121116042F21075CE
:103900001C46D4F81834DB03ECD5012002F0B7FADA
:10391000013DF6D1E6E7114B4FF080440022C4F898
:1039200008031A601B680E4B42F210751860D4F839
:103930000C34D4F80C24D20303F0010305D523B1D1
:10394000012002F09CFA013DF1D1064B00225A7190
:10395000C8E700BF040100400C0000400001004027
:103960000400004010090020164B1A6810B56AB117
:1039700000221A601B684FF080430122C3F808231D
:10398000114B587910B95A711B6898470F4B1A6838
:1039900072B100221A601B684FF08043D3F81824DC
:1039A000D3F81814920704D10122C3F818259A609D
:1039B00010BD0222C3F80823034BBDE810401B686A
:1039C00001201847000100401009002004010040B8
:1039D00070B501250368B3FA83F2202AC2F11F04EF
:1039E00014D0BFF35B8F05FA04F223EA020250E819
:1039F000006F9E4204D140E8002CBCF1000FF6D1CC
:103A0000BFF35B8FE6D102480C7070BD0148FCE744
:103A10000000AD0B0200AD0B0368CB40DB0710B517
:103A200015D4012303FA01F10368BFF35B8F41EA68
:103A3000030250E8004F9C4204D140E8002CBCF146
:103A4000000FF6D1BFF35B8FEED1024810BD0248E4
:103A5000FCE700BF0000AD0B0400AD0B036803F0F2
:103A60001F025B09012B0260024818BF4FF0A04003
:103A7000704700BF0003005070B500F108030C4C04
:103A800034F81330DA0505460E4607D5C3F3432351
:103A900004EBC30254F8333052689847A3682BB143
:103AA000E26831462846BDE87040184770BD00BF47
:103AB00050000020124B083010B433F81020D1050C
:103AC0001BD5C2F3432122F4F85223F8102003F14E
:103AD0001004002034F8022B12F4807F03D0C2F3CC
:103AE0004322914209D001303028F3D1002243F81B
:103AF0003120044810BCFFF78FBF10BC704700BFD7
:103B000050000020C400002038B50A4C00F1080520
:103B100034F815309A0606D55B0B074A03F5A273F5
:103B2000002142F82310FFF7C5FF002324F81530C9
:103B300038BD00BF50000020006000402DE9FF416B
:103B40001D46044617460B4609B34D4E00F10808C2
:103B500036F8182002F02202222A03D1494804B084
:103B6000BDE8F0810022CDE900228DF80E208DF80D
:103B70000F200DF10E010DF10F0202F082F936F85F
:103B8000183023F0020343F0010326F8183097B1F0
:103B90003B483E787A6804F1080330F813108F0729
:103BA0000CD5002ADAD130F8132022F01C0242EAA8
:103BB000860220F81320CDBB3348D0E721F0200146
:103BC000C904C90C20F81310002AECD0032EC5D864
:103BD00017782EB92D4A07F5A27142F82160E2E765
:103BE000BA0002F1804202F5C0424FEA042ED2F838
:103BF00010C52CF0030CC2F810C5D2F810C52CF477
:103C00004F3C2CF4407CC2F810C5D2F810C50EF41D
:103C10007C5E4CEA064C41EA47314CEA0E0C41F01E
:103C2000200120F81310C2F810C5BCE7D5E90067E1
:103C30002046FFF73FFF002EBED0114D2B689E425D
:103C400004D16B689F4201D1002209E010480DF1B8
:103C50000F01FFF7BDFE0C4B984280D19DF80F205D
:103C600045F8326005EBC20308345F6035F8143064
:103C700043EA422343F4807325F814309CE700BFE5
:103C8000500000200400AD0B0000AD0B00600040B0
:103C9000C4000020F0B5044685B0154609B300F114
:103CA0000807314E36F81730980701D49A0658D4D1
:103CB00013F01C0F02D04B78012B52D001238DF84A
:103CC0000F300023CDE900134A1C8B1C20460DF158
:103CD0000F0102F0D6F836F8173043F0030326F848
:103CE000173015B9214805B0F0BD1F4E04F1080783
:103CF00036F81700830734D595F800C0614689006F
:103D000020F0200001F18041C00401F5C041C00C49
:103D100026F817000023C1F810356A78002AE1D090
:103D2000D1F81035AD7823F4991323F4F853C1F882
:103D30001035D1F810E5230203F47C53120443EA52
:103D40000E0302F440322D05134305F4801540EABA
:103D50004C302B4340F0200026F81700C1F81035F6
:103D6000C0E70348BFE700BF500000200000AD0BD4
:103D70000400AD0B014BC3E9020170475000002065
:103D80000830054B33F810309A0643BF5B0B0348ED
:103D90000B700348704700BF500000200000AD0BBF
:103DA0000400AD0B38B50E4C94F87850B5B96022CC
:103DB000294604F1100001F0B0FE0620FEF786FA55
:103DC000084B09481D601B68084B4FF00042C3F8C0
:103DD0000423012384F87830636738BD0448FCE786
:103DE000500000207C6100400000AD0B00600040EE
:103DF0000500AD0B034B93F87800003818BF012085
:103E0000704700BF5000002001460148FFF704BE84
:103E1000C000002001460148FFF7DABDC0000020C5
:103E200037B51F4B00F10802044633F812309A06EA
:103E30001DD513F002051AD15B0B9A0002F18040E8
:103E400000F5C24002F1804202F5C0420560006800
:103E5000D2F8100540F00100C2F8100529B1012286
:103E600002FA03F30F4AC2F8043303B030BDC3F3C0
:103E70008203042B10D0052B10D001A80194FFF76A
:103E8000EDFD019BD0F81015D94001F00101023180
:103E9000204602F03DF8E8E70321F9E70221F7E7C1
:103EA00050000020006000400E4B00F1080233F883
:103EB0001230990613D59A0711D45B0B01229A4050
:103EC0009B00094903F1804303F5C043C1F808236F
:103ED000D3F8102522F00302C3F810257047002103
:103EE00002F016B850000020006000400E4B00F1B8
:103EF000080213B513F81230DB07044611D5FFF79B
:103F0000D3FF2046FFF700FE01A80194FFF7A6FDAE
:103F1000019B03F5E073022240F82320034802B01E
:103F200010BD0348FBE700BF500000200000AD0BB0
:103F30000400AD0B2DE9F04F644B65486549002541
:103F400087B001222C461E6836B1D0F804631642B1
:103F50001EBF1C601E68154304338B424FEA4202A9
:103F6000F1D15D4F3B687BB34FF0A0435B4ED3F87C
:103F700020250492C3F82025D6F820350593C6F8ED
:103F8000203500960DF110094FF000084FF0010B9D
:103F9000D9F80030F3B908F12008B8F1400F09F161
:103FA0000409F5D13B603B6800994FF0A043D3F87A
:103FB00020250492C3F82025009BD3F820350593D3
:103FC000C1F820351343DDD10124002D66D107B09F
:103FD000BDE8F08F93FAA3F3B3FA83F308EB03067B
:103FE00006F108023E4B039633F81220C2F3820317
:103FF000F40801939A4604AB06F007000BFA00FCA4
:10400000185D20EA0C00185503A89108FFF726FD5B
:10401000039C04F5E0744B0750F82440C4F30144BA
:1040200023D551463046FFF727FD03A80396FFF737
:1040300015FD039A02F5E072E4B250F82220C2F3B3
:104040000142944207D10021304601F061FF214630
:10405000304601F05DFF03A80396FFF7FFFC039BCA
:104060000BFA03F3C0F8203592E7022C0CBF0321B2
:104070000221304601F04CFF019B032B04D0022C9F
:1040800007D1BAF1010FE6D151463046FFF7F4FCF3
:10409000E1E7032CDFD1BAF1020FF4E795FAA5F3BB
:1040A000B3FA83F304FA03F29B0003F1804303F5B0
:1040B000C04325EA0205D3F81005D3F81015C0F364
:1040C0000520C1F30141FFF7D7FC7EE70061004006
:1040D00000600040206100407C610040000300500F
:1040E0005000002001460148FFF772BCCC000020C0
:1040F000034B1868A0F1080358425841704700BFAD
:1041000030010010064B1B68082B06D1054B1B68BD
:10411000052B02D8044AD05C70470020704700BFCE
:104120003001001034010010496A0000024AD2F840
:104130000034002BFBD0704700E0014010B5FFF7C2
:10414000D7FF40B14FF080430022C3F80C21C3F8E1
:104150001021C3F83825FFF7CBFF002846D04FF0D9
:1041600080525B4BD2F80414C3F82015D2F808141F
:10417000C3F82415D2F80C14C3F82815D2F810147B
:10418000C3F82C15D2F81414C3F83015D2F818144B
:10419000C3F83415D2F81C14C3F84015D2F8201413
:1041A000C3F84415D2F82414C3F84815D2F82814DB
:1041B000C3F84C15D2F82C14C3F85015D2F83014AB
:1041C000C3F85415D2F83414C3F86015D2F8381473
:1041D000C3F86415D2F83C14C3F86815D2F840143B
:1041E000C3F86C15D2F84424C3F87025FFF78AFF92
:1041F00010B1384B384A1A60FFF784FF18B1374BBB
:10420000FB22C3F81825FFF77DFF48B13449354B31
:104210000A681B6822F00F0203F00F0313430B60C0
:10422000FFF770FF18B1304B4FF400721A60FFF7C0
:104230005FFF48B14FF08043D3F80024D20744BF5A
:104240006FF00102C3F80024284B1B68082B0ED125
:10425000274B1B68052B02D8264AD35C3BB14FF095
:104260001023D3F808224FF08043C3F858254FF0AD
:104270001023D3F80022002A03DBD3F80432002BEA
:1042800022DA1D490123C1F80435FFF74FFF4FF033
:1042900010201224C0F80042FFF748FFC0F8044283
:1042A000FFF744FF0023C1F80435FFF73FFFBFF3DA
:1042B0004F8F1249124BCA6802F4E0621343CB607D
:1042C000BFF34F8F00BFFDE70E4B0F4A1A6010BDC2
:1042D00000C000408C5600404881030000F00040C0
:1042E000E40E0040580200104096024030010010D9
:1042F00034010010436A000000E0014000ED00E0DE
:104300000400FA05D00000200090D00310B5144C32
:10431000144A1549032323616361144BA261E361CD
:104320004FF4806323620023A3626362E362226628
:104330000F4A6266E01D1022A2662367E366636788
:1043400001F0BAFBBFF35F8F0A49204601F0B4FBCE
:10435000BFF35F8F2023A371BFF35F8F10BD00BF3A
:10436000180900204F6A0000586A0000210A002046
:10437000110A00205C6A00000E4B70B553F8204013
:10438000013053F82060A64200D870BDD4E9003552
:104390002846984765B1EB6830B10028B8BF404265
:1043A000FF28A8BFFF2018705A7842F001025A7007
:1043B0000834E8E7EC67000070B5054610B9002442
:1043C000204670BD0378002BF9D00F4A0F4C1646DB
:1043D000944208D10D4CB442F1D0204601F0AFFD1B
:1043E00050B91834F7E7204601F0A9FD10B1236851
:1043F000AB42E5D01834EBE72168284601F076FBA4
:104400000028EED1DCE700BF0063000088620000F6
:1044100008B5094C4FF02002EFF3118382F31288A4
:10442000BFF36F8F01F0C7FEA061FDF723FE0028E8
:10443000F0D1FDF7D5FEEDE7C009002030B500232F
:1044400087B00122CDE904230F22CDE902320D4CC1
:104450000D4A01930D49182304EBC01403FB0023FC
:104460004FF4B075009305FB0011094B4FF4A07297
:10447000204600F061FD637B23F00403637307B003
:1044800030BD00BFC0010020C00900200014002082
:104490001144000008B50A4B012202201A70FFF7F0
:1044A0006BFF00F051FF0320FFF766FF00F076FD81
:1044B000FCF71EFC034A137B23F00103137308BDB2
:1044C000210E0020400200200248034A0021121A57
:1044D00001F023BBA0010020E00F002080B5DFF831
:1044E000D880A6B088F308882D4D2E4E6B69DFF872
:1044F000CC9043F4007300246B61E02385F82230F4
:10450000EC772C766C76AC7685F820406B6A43F4B9
:10451000E0236B6285F82340FEF7BCF8FDF75AFEF6
:104520004FF0FF33AB62EB62FEF7AAF9FEF71AF920
:1045300040F20113ADF8243006ABB360CDE91F445F
:1045400001F0FCFC2046FFF717FF0120164DFFF796
:1045500013FF00F09BFB154B0593012314490094B6
:10456000CDE903434FF480624B46CDE90144284630
:10457000F56100F0E1FC6A7B22F004026A730746F1
:10458000284601F085FD2046FFF758FF094BF360F0
:104590004A46394628463475C6F80480FDF738FF88
:1045A00000ED00E0C009002040020020636A000026
:1045B000E00F0020C0010020801D00209544000075
:1045C00070B50E4B0E4CA34201D3002070BDD3E951
:1045D000030141EA000212F003020BD19D685A6107
:1045E000AA4201D11C33EEE75E690E6001325961C7
:1045F0000144F5E76FF01500E8E700BF5001002027
:1046000050010020D3B50C4616461F464FF020033C
:10461000EFF3118183F31288BFF36F8F43695BB1AE
:1046200023601B684361836901338361002081F348
:104630001188BFF36F8F11E056EA070203D12360A0
:104640006FF00B00F3E70246CDE90067083000F099
:104650006FFA18B9024B9B685B69236002B0D0BD4A
:10466000C00900202DE9F341044616461F464FF0CD
:104670002003EFF3118883F31288BFF36F8FC368B1
:10468000354A6BB180689168884219D056EA0703B1
:1046900018D188F31188BFF36F8F6FF00F000CE013
:1046A000916891F90E1021610133E3609368A36072
:1046B00088F31188BFF36F8F002002B0BDE8F0814E
:1046C0002169F0E791F90E1090F90E309942A8BFD8
:1046D00019466FF07E029142B8BF11468B422FDD22
:1046E00000F03AFA0546CDE900671C4822464146EB
:1046F00000F01EFA0028E0D04FF02003EFF31186FF
:1047000083F31288BFF36F8F236821699C420AD01C
:104710004BB193F90E309942A8BF19466FF07E0352
:104720009942B8BF1946A06890F90E30994209D154
:104730006DB10A48314600F0A1F86FF00A00BCE7FD
:104740000025D0E700F008FA0028F2D1F0E786F360
:104750001188BFF36F8FF0E7C0090020220E002000
:1047600038B583680446002B36D01E4A92689342BF
:1047700035D1DA7B013ADA73C368012B05D9013BE5
:10478000C36000F067FA002038BD4FF02003EFF35C
:10479000118583F31288BFF36F8F0169806890F9E8
:1047A0000E30994201D000F0D7F9204601F0CFFC3D
:1047B000A06058B190F90E2022610022826701F0BA
:1047C00067FC0948294600F059F8DAE7E06085F30C
:1047D0001188BFF36F8FD4E76FF01500D4E74FF067
:1047E000FF30D1E7C0090020220E002010B5084C90
:1047F00023685BB1FFF726F803462068054A0344A7
:10480000BDE810401361002101F0E5BC10BD00BF00
:10481000F0090020C0090020F8B504460D464FF00D
:104820002003EFF3118683F31288BFF36F8F104BD1
:1048300000224FF4004740F2E73000211A61E7FB05
:10484000040100234FF47A72FCF7D8F8002C094BCE
:1048500009DC1860084B1D60FFF7C8FF86F311885C
:10486000BFF36F8FF8BD0228B8BF0220F1E700BF89
:10487000C0090020F0090020EC09002049B9EFF33D
:10488000058030B9054BDA699B689A4201D0FDF783
:104890006FBD81F31188BFF36F8F7047C00900208F
:1048A0004FF02003EFF3118183F31288BFF36F8F72
:1048B000044B9A68D37B013BD37381F31188BFF318
:1048C0006F8F7047C009002038B502460C480D4D67
:1048D00001F0D4FB044600B9EC68AB684AB95A7BD6
:1048E000D20606D1A26922B9DA897F2A01D9EB6101
:1048F00038BD9C4201D0FFF779FFEC61F8E700BFBB
:10490000E0090020C009002070B590F90D20437B1C
:10491000002A014604DA03F07F03437301F086FBAB
:104920004B7B174A63F07F0310464B7350F8203FD0
:10493000556A834208BF0023002B38BF0023CBB148
:1049400091F90E6093F90E40A6420FD0A41B002CE3
:104950000CDD5868C1E90030016059609068431A65
:104960005842BDE870405841FFF7AEBFAB4201D09E
:104970001B68E4E7C1E9000529605162EEE700BF6A
:10498000C009002070B501464FF02003EFF31184F9
:1049900083F31288BFF36F8F164B174A9868156818
:1049A000A8421D4606D1FFF721FF84F31188BFF30B
:1049B0006F8F70BD00261660104A1268BAB1C289A6
:1049C0007F2A14D8427BD20611D10D4A90F90E608D
:1049D000126896420BDB0B4A904208D01A698A4251
:1049E00002DCFFF791FFDEE7521A1A61DDE70023D0
:1049F0002B61DAE7C0090020E8090020F009002057
:104A0000EC090020C001002070B490F90D30427B09
:104A1000002B2DDBD3062BD183694BBB154962F0EC
:104A20007F0242730A464D6A52F8204F944218BFE3
:104A30002346002B38BF0023ABB190F90E6093F9E9
:104A40000E40A6420BD0A41B002C08DD5A68C0E91A
:104A500000321060586070BC0020FFF735BFAB42D9
:104A600001D01B68E8E7C0E9002528604862F2E74A
:104A700070BC7047C009002010B54FF02002EFF362
:104A8000118482F31288BFF36F8F427B510704D4E5
:104A900084F31188BFF36F8F10BD22F004024273BC
:104AA000FFF7B2FF21460248BDE81040FFF7E6BE1F
:104AB000220E002008B590F90D20437B002A014604
:104AC00004DA03F07F03437301F0B0FA044B9868F3
:104AD000431A58425841BDE80840FFF7F5BE00BFF1
:104AE000C00900202DE9F041064614461D464FF04E
:104AF0002003EFF3118783F31288BFF36F8F01F068
:104B0000F9FA87F31188BFF36F8F6B1C08BFB4F1FC
:104B1000FF3F08D022462B4606F118000349BDE8A6
:104B2000F04100F0E9BABDE8F08100BFB1600000DB
:104B300010B5074B9868074B0C4618601146DDE925
:104B40000223FFF7CFFF2046BDE81040FDF710BC61
:104B5000C0090020E8090020F8B504464FF0200302
:104B6000EFF3118683F31288BFF36F8F437BDA066E
:104B700049B238D18569002D35D103F07F034373E5
:104B800001F054FA437B817363F07F03437317484A
:104B9000034653F8207F9F4218BF3D46002D476AC9
:104BA0001A462B4638BF0023C3B193F90E50A942D1
:104BB00010D06D1A002D0DDD5A68C4E90032146062
:104BC0005C600120FFF780FE012086F31188BFF3AF
:104BD0006F8FF8BDBB4201D01B68E5E7C4E9002731
:104BE0003C604462EDE7A1730020EEE7C0090020BD
:104BF00070B50446183001F0C8FA4FF02003EFF307
:104C0000118683F31288BFF36F8F94F90D20637BB5
:104C1000002A05DA03F07F036373204601F006FAE9
:104C20000B4D637BA86843F010036373031B58426A
:104C30005841FFF749FE86F31188BFF36F8FAB68C9
:104C4000A34203D1BDE8704001F00EBA70BD00BFB1
:104C5000C009002010B54FF02003EFF3118483F357
:104C60001288BFF36F8F084B9A68D37B0133D373DD
:104C70000020FFF729FE84F31188BFF36F8FBDE892
:104C8000104001F0F1B900BFC0090020044B002121
:104C900003F12002C3E908220846FFF7BDBD00BFAB
:104CA000C0090020F8B54FF02003EFF3118483F31F
:104CB0001288BFF36F8F1B498868437B03F07F0323
:104CC000437301F0B3F98A68537B084663F07F03AE
:104CD000537350F8203F4E6A834208BF0023002BD5
:104CE00038BF0023CBB192F90E7093F90E50AF424A
:104CF0000FD0ED1B002D0CDD5968C2E900310A60B0
:104D00005A600120FFF7E0FD2046BDE8F840FDF7BE
:104D10002FBBB34201D01B68E4E7C2E90006326052
:104D20004A62EEE7C00900202DE9F04104460D4635
:104D300054EA050104D1FFF7B5FF0020BDE8F0817A
:104D40006FF001010A1A4FF0FF3161EB0503012AF0
:104D500073F100032ADA01F058FA06194FF0200324
:104D6000EFF3118883F31288BFF36F8F114F124B4B
:104D7000B8681860FFF79EFEB868104922462B46B7
:104D8000183000F0B9F9BA68537B43F0100353733D
:104D90004046FDF7EDFA01F038FA301A66EB0601ED
:104DA000012871F10003B8BF0020C7E76FF00106CA
:104DB000361AD3E7C0090020E8090020B1600000DE
:104DC00008B50B46013308BFB0F1FF3F06D1084BD1
:104DD0009868FFF70DFF4FF0FF3008BDFFF7A4FF05
:104DE0004FF47A7380FB0323D00B40EA4340F4E78F
:104DF000C0090020014B9868704700BFC00900201F
:104E00002DE9F04104464FF02003EFF3118683F3C0
:104E10001288BFF36F8F437B1A0705D586F311887D
:104E2000BFF36F8FBDE8F08123F0200242F008014C
:104E3000D20920D14173A36813B1204601F0FEF8D6
:104E400004F1180001F0A1F904F158074FF000082F
:104E5000A56DBD4200D0B5B90120FFF735FD104B5F
:104E60009B68A342DAD1EFF30583002BD6D13046FD
:104E7000FDF77EFAD2E703F05F0343F008034373C4
:104E800001F0D4F8D7E7284601F0D8F805F118006A
:104E900001F07BF9C5F878802846FFF7B5FDD7E724
:104EA000C009002038B504464FF02003EFF3118508
:104EB00083F31288BFF36F8F01F049F948B10022E4
:104EC000826701F0E5F829460548BDE83840FFF75C
:104ED000D5BCD4E902329A4218BF0133A360F2E78D
:104EE000220E002037B514461D464FF02003EFF385
:104EF000118183F31288BFF36F8F836843B1013B45
:104F0000836081F31188BFF36F8F002003B030BD41
:104F100054EA050306D181F31188BFF36F8F6FF058
:104F20000F00F3E70246CDE900450248FFF700FE17
:104F3000ECE700BF220E00202DE9FF410E9E067314
:104F4000042646730D9E867300F158050F46D61D44
:104F5000C0E916550C9A002526F007062037C0E94F
:104F60000655C0E919768560C573C56606F1200847
:104F700002920B9A019288440A9A00924246044691
:104F8000FDF710FA044B65659B6803B11B6F23673F
:104F9000404604B0BDE8F081C00900202DE9F0478B
:104FA0002A4E2B4D86B0B046B54205F1300410D3E1
:104FB000FFF776FC264CDFF89CA04FF4004940F246
:104FC000E7360027444521D306B0BDE8F047FFF798
:104FD00041BE54F8043C059354F8103C049354F833
:104FE000143C039354F8183C029354F81C3C01936E
:104FF00054F8203C009354E90A2354E90C01FFF7CC
:105000009BFF54F8303C5D652546CDE7636A5A1C2A
:105010000DD023EAE37330463946C9FB0301B94298
:1050200008BFB042256804D12846FFF725FD30347B
:10503000C8E74FF47A720023FBF7E0FC02460B4608
:1050400005F11800514600F057F8F0E75001002034
:1050500050010020B1600000034B1B680BB9FEF744
:10506000F1BB0020704700BFF409002030B5036891
:1050700068B10A4A5268904209D043B1D3E9042189
:10508000D0E90445121945EB0101C3E90421426846
:1050900013605A600023C0E9003330BDD400002003
:1050A00038B5134B1C689C4208BF0024FFF7D4FF9F
:1050B0000546BCB1D4E90401401B61EBE571012850
:1050C00071F1000311DB6FF000420023824273EBA9
:1050D000010400DA1046074B1B6913B19842A8BFC0
:1050E000184638BD6FF00040F5E70020F3E700BF39
:1050F000D4000020C0090020B3F1FF3F08BFB2F187
:10510000FF3F2DE9F74F044692469B4673D08160DE
:105110004FF02003EFF3118583F31288BFF36F8FF5
:105120006FF00103B3EB0A084FF0FF3262EB0B099B
:10513000B8F1000F79F100011CDB3048D0E9001014
:105140005B1A62EB0002B3EB0A0662EB0B07012E5F
:1051500077F10003BCBF01260027C4E90467284A91
:10516000D2E9003C93421ED1C4E9002CCCF80040A7
:1051700054602DE0FFF770FF1AF1010300934BF12B
:1051800000030193DDE90023121843EBE073C4E947
:105190000423E4E7B6EB080067EB09016345C4E9C3
:1051A0000401E1D01B68002BDED0D3E90489D4E9E7
:1051B0000467464577EB0901ECDAB8EB060069EBCA
:1051C0000701C3E904015968C4E900310C605C605F
:1051D000136893420BD09C4209D1FFF761FF18B1CD
:1051E000084B1B69834202D00021FEF7FBFA85F3CE
:1051F0001188BFF36F8F03B0BDE8F08FC0020020AD
:10520000D4000020C00900202DE9F74F0646FFF723
:10521000B9FB4FF02003EFF3118483F31288BFF33F
:105220006F8F2C4DDFF8B0A0DFF8B0B02E60514684
:10523000D5F800C0DBF800006246D3175845DAE91C
:105240000089CDE900230DD060B1D0E90467B445F1
:10525000BB411EDA009BB6EB030C019B67EB030618
:10526000C0E904C6009B13EB0802019B4FF0000647
:1052700043EB0903C1E900232E60FFF711FF31461C
:10528000FEF7B0FA84F31188BFF36F8F03B0BDE867
:10529000F08F18EB06084FF000024FF0000349EBC7
:1052A000E679C0E90423ACEB0606CAE900892E6062
:1052B000FFF7DCFE84F31188BFF36F8F8368984794
:1052C0004FF02003EFF3118483F31288BFF36F8F45
:1052D0000149ADE7F4090020C0020020D4000020FD
:1052E00010B54FF02003EFF3118483F31288BFF35E
:1052F0006F8FFEF7A7FA064BD3E90023121843F18C
:10530000000384F31188BFF36F8F1046194610BD58
:10531000C002002008B50648064A0749121A00F0E4
:10532000F1FBBDE80840054A0549064800F0EABB24
:1053300000000020A0010020A06A00000000000082
:10534000A06A000000000020024A0349034800F060
:1053500081BB00BF88690000686A0000776A0000AE
:1053600010B50A4C23681BB101232360002010BD37
:1053700000F0D6F80028F7D00138062803D8044BEF
:1053800053F8200010BD034810BD00BFF8090020ED
:1053900004680000FE8FFFFFBFF34F8F0549064BE7
:1053A000CA6802F4E0621343CB60BFF34F8F00BFC3
:1053B000FDE700BF00ED00E00400FA05F0B4094F7E
:1053C000094E0A4C0A4A0B4D0B494FF0FE333B6025
:1053D00052683360236000242B60C1F80045F0BCA4
:1053E000104700BF00B4025004B4025008B4025089
:1053F000DC0000200CB4025000A00250D0E90012E2
:10540000014BC3E900127047DC00002010B50446D0
:1054100030B16368DB0602D500232360636010BDF2
:10542000024B03485B689847F3E700BFDC000020AD
:105430002068000068B143683BB1DB0607D5BFF3C5
:105440005F8F002303601846704703487047034886
:1054500070476FF4E0407047EA8FFFFFE98FFFFF6E
:1054600010B5044620B1002211232260636010BDF4
:105470000148FFF7A3FFF6E748680000C0B14368A2
:10548000A3B1DB0610D50122BFF35B8F50E8003FCC
:1054900040E800210029F9D1BFF35B8F012BF3D045
:1054A000BFF35F8F00207047034870470348704781
:1054B0006FF4E040704700BFE98FFFFFEA8FFFFF06
:1054C00070B5D0E90023134C134DC4E90023D0E993
:1054D0000263C4E90263114B0868186048685860A9
:1054E00088689860D1E90360D5F81411DE6018610E
:1054F000CB060DD50023C5E94433C5E96D3305F569
:1055000088709047236805F5DA70BDE87040184749
:1055100070BD00BFEC000020240E0020FC00002025
:1055200010B500F033F820B1032400F067F82046EE
:1055300010BD00F035F890B900F0B0F890B90F4BFD
:105540001B681B0EF02B08D10D4A0E4B12689A42B5
:105550000AD0072400F01CF8E7E70624FAE7042441
:10556000204610BD0024F5E7012000F097F804461E
:105570000028F7D1044B1860D9E700BF28B90250C2
:1055800024BA02500000E0200CBA025000207047FC
:1055900000207047014B1860704700BF04BA0250EA
:1055A00010B5114800F048F800B110BD0F4800F0E8
:1055B00043F80028F9D10E4C204600F03DF80028B1
:1055C000F3D10C4B0C481C6000F036F80146002863
:1055D000EBD100F02DF8044608B1204610BD00F0D4
:1055E0003FF82046FAE700BF3401002028010020E0
:1055F00030010020380100202C01002008B50848A7
:1056000000F024F8074800F021F8074800F01EF8E1
:10561000064800F01BF8BDE8084000F00BB800BFDA
:105620003401002028010020300100202C0100203E
:1056300000207047704700BF08B5034B02681B6825
:1056400010689847002008BDEC00002008B5034B07
:1056500002685B6810689847002008BDEC000020D5
:1056600070B5094C094D2069AB68984718B1084BD3
:1056700008485B689847084AEB6820690021116078
:10568000BDE87040184700BFFC000020EC0000207F
:10569000DC0000206C6800000C0A002070B51A4D78
:1056A0001A4E0446B26828699047F0B95CB1184CAC
:1056B0002368ABB1012B1AD0013B23602869F36842
:1056C0009847002070BD124C216839B9114B124A1D
:1056D0000120C3F800051368002BFCD101312160C3
:1056E000F36828699847002070BD0C4870BD0A4ACD
:1056F0001368002BFCD1074A6FF07E40C2F80035DA
:10570000FFF748FF2368D7E7FC000020EC000020EB
:105710000C0A002000A0025010B90250E98FFFFFD0
:10572000130430B4846807D5056901232D688B40C4
:105730002B4218BF82F4C022A46902F4C023A446FD
:1057400002F4B03230BC6047F0B4D4048768066914
:10575000134606D512F4406F03D0DA0748BF83F42E
:105760004063346801258D4023F48052DB074CBF31
:105770002C43AC433B683460F0BC18478368DB695A
:105780000BB1012218476FF08500704737B503460B
:1057900000681C790569836801A95B68984740B96E
:1057A0002B68019A5A400123A3401A4214BF0120DA
:1057B000002003B030BD704738B54FF4004140F2CF
:1057C000E7340025C1FB00454FF47A7200232046E0
:1057D0002946FBF713F9BDE83840FFF7F1BA7047E7
:1057E000704770470346006819794FF4B822FFF7F5
:1057F00097BF2DE9F74F9946D37814466F2BA3F145
:10580000410206460F4601922DD028D8582B14BFCE
:105810000A251025DDF83080AA464FF0000B5246CD
:105820005B4630463946FBF7E9F8092AD3B21FD860
:1058300030335F45DBB208BF564508F8013D01D360
:10584000C84512D823789B0605D5082D16D1A37814
:1058500043F00803A370404603B0BDE8F08F03F0A7
:10586000F703702BD3E70825D4E706460F46D6E7A3
:10587000019A192A94BF37335733DAE7102DEAD14A
:10588000A37843F01003E5E72DE9F0410746884689
:1058900015461E461446B442A4EB050002D33EB999
:1058A00023782BB114F8010B4146B8470028F2DAEF
:1058B000BDE8F0817047034658B1426802F0030228
:1058C000012A03D0032A04D1026812B10020986093
:1058D00070476FF0150070474268816002F0030264
:1058E000032A4FF0000203460CBF006810465A60BE
:1058F000704708B50020FCF759FC038B13F0070331
:1059000005D10368002B0CBF002003207047022B39
:1059100005D1438B002B14BF002004207047012BBE
:1059200005D10368002B0CBF002005207047002024
:1059300070472DE9F0410D4607461946281D90464F
:105940001E46FFF7C9FF044638B133464246294692
:105950003846A446BDE8F0416047BDE8F08110B488
:105960004FF02004EFF3118284F31288BFF36F8F9E
:10597000416110BC0121FCF705BA10B50C4640B1DD
:1059800039B1081DFFF797FF28B9A36833F0030367
:1059900001D06FF0150010BD38B50C46054658B162
:1059A00051B10B6843B14B6833B11C22002100F0A8
:1059B000B4F82C61002038BD6FF01500FBE770B51E
:1059C00004460E46FFF7D9FF051E31DB4FF02003DA
:1059D000EFF3118183F31288BFF36F8F638B208BFA
:1059E0004FF6FF75AB4200F007022ED0022A0ED10F
:1059F000013363831546012381F31188BFF36F8F51
:105A0000B3B1002331462046FFF793FF10E0830730
:105A100001D0062A0ED100233360636893B9C4E92C
:105A20000066154662B90A4620460221FCF7AAF92B
:105A3000284670BD052A0CBF6FF085056FF0040580
:105A40000023D9E71E606660EBE76FF00A05F7E711
:105A5000002070470FB407B504A951F8040B019159
:105A6000FCF796FB03B05DF804EB04B0704700222E
:105A7000C0E9002282607047044608B50846114616
:105A80001A46A047FFF7B6F9FCF75AFE00F061BAD4
:105A90000146006800F05DBA00210120FFF7F6BF63
:105AA00008B5FCF7D5FBBDE80840FCF7C7BC4FF0D4
:105AB000FF307047FCF72ABF0139034611F8012F68
:105AC0000AB91A70704703F8012BF7E70346002064
:105AD0001A5C02B970470130FAE7034600201A5CED
