:10000000802A0020CD2B0000556E0000B92B000087
:10001000B92B0000B92B0000B92B00000000000034
:100020000000000000000000000000000D2A000099
:10003000B92B000000000000B9290000B92B000016
:100040007129000071290000712900007129000048
:100050007129000071290000712900007129000038
:100060007129000071290000712900007129000028
:100070007129000071290000712900007129000018
:100080007129000071290000712900007129000008
:1000900071290000712900007129000071290000F8
:1000A00071290000712900007129000071290000E8
:1000B00071290000712900007129000071290000D8
:1000C00071290000712900007129000071290000C8
:1000D00071290000712900007129000071290000B8
:1000E00071290000712900007129000071290000A8
:1000F0007129000071290000712900007129000098
:100100004FF0FF0C1CEAD0521EBF1CEAD15392EAFA
:100110000C0F93EA0C0F6FD01A4480EA010C4002D6
:1001200018BF5FEA41211ED04FF0006343EA501030
:1001300043EA5111A0FB01310CF00040B1F5000F72
:100140003EBF490041EAD3715B0040EA010062F121
:100150007F02FD2A1DD8B3F1004F40EBC25008BF0B
:1001600020F00100704790F0000F0CF0004C08BF29
:1001700049024CEA502040EA51207F3AC2BFD2F1F6
:10018000FF0340EAC250704740F400004FF0000304
:10019000013A5DDC12F1190FDCBF00F0004070473E
:1001A000C2F10002410021FA02F1C2F1200200FA7C
:1001B00002FC5FEA310040F1000053EA4C0308BF43
:1001C00020EADC70704792F0000F00F0004C02BF94
:1001D000400010F4000F013AF9D040EA0C0093F00F
:1001E000000F01F0004C02BF490011F4000F013B69
:1001F000F9D041EA0C018FE70CEAD15392EA0C0FD7
:1002000018BF93EA0C0F0AD030F0004C18BF31F041
:10021000004CD8D180EA010000F00040704790F017
:10022000000F17BF90F0004F084691F0000F91F0BB
:10023000004F14D092EA0C0F01D142020FD193EA81
:100240000C0F03D14B0218BF084608D180EA010009
:1002500000F0004040F0FE4040F40000704740F0E5
:10026000FE4040F44000704781F0004102E000BFD2
:1002700083F0004330B54FEA41044FEA430594EA66
:10028000050F08BF90EA020F1FBF54EA000C55EAA1
:10029000020C7FEA645C7FEA655C00F0E2804FEA72
:1002A0005454D4EB5555B8BF6D420CDD2C4480EA54
:1002B000020281EA030382EA000083EA010180EA84
:1002C000020281EA0303362D88BF30BD11F0004FD2
:1002D0004FEA01314FF4801C4CEA113102D0404208
:1002E00061EB410113F0004F4FEA03334CEA133343
:1002F00002D0524263EB430394EA050F00F0A7805B
:10030000A4F10104D5F1200E0DDB02FA0EFC22FA55
:1003100005F2801841F1000103FA0EF2801843FA49
:1003200005F359410EE0A5F120050EF1200E012A3A
:1003300003FA0EFC28BF4CF0020C43FA05F3C01878
:1003400051EBE37101F0004507D54FF0000EDCF1F1
:10035000000C7EEB00006EEB0101B1F5801F1BD39A
:10036000B1F5001F0CD349085FEA30004FEA3C0C9E
:1003700004F101044FEA445212F5800F80F09A8094
:10038000BCF1004F08BF5FEA500C50F1000041EB98
:10039000045141EA050130BD5FEA4C0C404141EB9C
:1003A0000101013C28BFB1F5801FE9D291F0000F97
:1003B00004BF01460020B1FA81F308BF2033A3F146
:1003C0000B03B3F120020CDA0C3208DD02F1140C3D
:1003D000C2F10C0201FA0CF021FA02F10CE002F178
:1003E0001402D8BFC2F1200C01FA02F120FA0CFC71
:1003F000DCBF41EA0C019040E41AA2BF01EB0451BA
:10040000294330BD6FEA04041F3C1CDA0C340EDCB7
:1004100004F11404C4F1200220FA04F001FA02F3FA
:1004200040EA030021FA04F345EA030130BDC4F1B8
:100430000C04C4F1200220FA02F001FA04F340EAAD
:100440000300294630BD21FA04F0294630BD94F05E
:10045000000F83F4801306BF81F480110134013D45
:100460004EE77FEA645C18BF7FEA655C29D094EAB6
:10047000050F08BF90EA020F05D054EA000C04BF34
:100480001946104630BD91EA030F1EBF002100201F
:1004900030BD5FEA545C05D14000494128BF41F0BE
:1004A000004130BD14F580043CBF01F5801130BD22
:1004B00001F0004545F0FE4141F470014FF00000AD
:1004C00030BD7FEA645C1ABF194610467FEA655C5E
:1004D0001CBF0B46024650EA013406BF52EA033500
:1004E00091EA030F41F4002130BD00BF90F0000FEE
:1004F00004BF0021704730B54FF4806404F132042A
:100500004FF000054FF0000150E700BF90F0000FE2
:1005100004BF0021704730B54FF4806404F1320409
:1005200010F0004548BF40424FF000013EE700BFD9
:1005300042004FEAE2014FEA31014FEA02701FBF69
:1005400012F07F4393F07F4F81F06051704732F09B
:100550007F4208BF704793F07F4F04BF41F40021F2
:10056000704730B54FF4607401F0004521F0004150
:100570001CE700BF50EA010208BF704730B54FF0DA
:1005800000050AE050EA010208BF704730B511F0DB
:10059000004502D5404261EB41014FF4806404F113
:1005A00032045FEA915C3FF4D8AE4FF003025FEA99
:1005B000DC0C18BF03325FEADC0C18BF033202EB1D
:1005C000DC02C2F1200300FA03FC20FA02F001FA77
:1005D00003FE40EA0E0021FA02F11444BDE600BF1A
:1005E00070B54FF0FF0C4CF4E06C1CEA11541DBFC9
:1005F0001CEA135594EA0C0F95EA0C0F00F0DEF894
:100600002C4481EA030621EA4C5123EA4C5350EA78
:10061000013518BF52EA033541F4801143F48013C9
:1006200038D0A0FB02CE4FF00005E1FB02E506F05A
:100630000042E0FB03E54FF00006E1FB03569CF0AF
:10064000000F18BF4EF0010EA4F1FF04B6F5007FB5
:1006500064F5407404D25FEA4E0E6D4146EB060627
:1006600042EAC62141EA55514FEAC52040EA5E50B0
:100670004FEACE2EB4F1FD0C88BFBCF5E06F1ED85A
:10068000BEF1004F08BF5FEA500E50F1000041EB91
:10069000045170BD06F0004646EA010140EA02003E
:1006A00081EA0301B4EB5C04C2BFD4EB0C0541EA60
:1006B000045170BD41F480114FF0000E013C00F375
:1006C000AB8014F1360FDEBF002001F0004170BD99
:1006D000C4F10004203C35DA0C341BDC04F11404B2
:1006E000C4F1200500FA05F320FA04F001FA05F23E
:1006F00040EA020001F0004221F0004110EBD3700B
:1007000021FA04F642EB06015EEA430E08BF20EA36
:10071000D37070BDC4F10C04C4F1200500FA04F3D9
:1007200020FA05F001FA04F240EA020001F000416B
:1007300010EBD37041F100015EEA430E08BF20EADE
:10074000D37070BDC4F1200500FA05F24EEA020E26
:1007500020FA04F301FA05F243EA020321FA04F055
:1007600001F0004121FA04F220EA020000EBD3700C
:100770005EEA430E08BF20EAD37070BD94F0000F0C
:100780000FD101F00046400041EB010111F4801F40
:1007900008BF013CF7D041EA060195F0000F18BFF1
:1007A000704703F00046520043EB030313F4801F2D
:1007B00008BF013DF7D043EA0603704794EA0C0FE7
:1007C0000CEA135518BF95EA0C0F0CD050EA4106FD
:1007D00018BF52EA4306D1D181EA030101F000417A
:1007E0004FF0000070BD50EA410606BF10461946A2
:1007F00052EA430619D094EA0C0F02D150EA0136AE
:1008000013D195EA0C0F05D152EA03361CBF1046EE
:1008100019460AD181EA030101F0004141F0FE418D
:1008200041F470014FF0000070BD41F0FE4141F411
:10083000780170BD70B54FF0FF0C4CF4E06C1CEA11
:1008400011541DBF1CEA135594EA0C0F95EA0C0FC6
:1008500000F0A7F8A4EB050481EA030E52EA033581
:100860004FEA013100F088804FEA03334FF08055A2
:1008700045EA131343EA12634FEA022245EA1115CF
:1008800045EA10654FEA00260EF000419D4208BF80
:10089000964244F1FD0404F5407402D25B084FEA2D
:1008A0003202B61A65EB03055B084FEA32024FF4D9
:1008B00080104FF4002CB6EB020E75EB030E22BF36
:1008C000B61A754640EA0C005B084FEA3202B6EBF6
:1008D000020E75EB030E22BFB61A754640EA5C00A5
:1008E0005B084FEA3202B6EB020E75EB030E22BF35
:1008F000B61A754640EA9C005B084FEA3202B6EB36
:10090000020E75EB030E22BFB61A754640EADC00F4
:1009100055EA060E18D04FEA051545EA16754FEA56
:1009200006164FEAC30343EA52734FEAC2025FEA74
:100930001C1CC0D111F4801F0BD141EA00014FF003
:1009400000004FF0004CB6E711F4801F04BF0143D4
:100950000020B4F1FD0C88BFBCF5E06F3FF6AFAEF0
:10096000B5EB030C04BFB6EB020C5FEA500C50F180
:10097000000041EB045170BD0EF0004E4EEA113103
:1009800014EB5C04C2BFD4EB0C0541EA045170BD0A
:1009900041F480114FF0000E013C90E645EA060E4E
:1009A0008DE60CEA135594EA0C0F08BF95EA0C0F7C
:1009B0003FF43BAF94EA0C0F0AD150EA01347FF4C4
:1009C00034AF95EA0C0F7FF425AF104619462CE79B
:1009D00095EA0C0F06D152EA03353FF4FDAE1046FE
:1009E000194622E750EA410618BF52EA43067FF44F
:1009F000C5AE50EA41047FF40DAF52EA43057FF4DF
:100A0000EBAE12E74FEA410212F5001215D211D5F2
:100A10006FF47873B3EB625212D94FEAC12343F0FB
:100A2000004343EA505311F0004F23FA02F018BF7D
:100A3000404270474FF00000704750EA013005D146
:100A400011F0004008BF6FF0004070474FF0000009
:100A5000704700BF80F0004002E000BF81F000411D
:100A600042001FBF5FEA410392EA030F7FEA226C54
:100A70007FEA236C6AD04FEA1262D2EB1363C1BFE4
:100A8000D218414048404140B8BF5B42192B88BF53
:100A9000704710F0004F40F4000020F07F4018BF76
:100AA000404211F0004F41F4000121F07F4118BF96
:100AB000494292EA030F3FD0A2F1010241FA03FC3E
:100AC00010EB0C00C3F1200301FA03F100F0004326
:100AD00002D5494260EB4000B0F5000F13D3B0F1EE
:100AE000807F06D340084FEA310102F10102FE2A5D
:100AF00051D2B1F1004F40EBC25008BF20F00100CD
:100B000040EA03007047490040EB0000013A28BF6B
:100B1000B0F5000FEDD2B0FA80FCACF1080CB2EBEE
:100B20000C0200FA0CF0AABF00EBC250524218436C
:100B3000BCBFD0401843704792F0000F81F4000111
:100B400006BF80F400000132013BB5E74FEA4103E4
:100B50007FEA226C18BF7FEA236C21D092EA030F50
:100B600004D092F0000F08BF0846704790EA010FCA
:100B70001CBF0020704712F07F4F04D1400028BFF7
:100B800040F00040704712F100723CBF00F50000D9
:100B9000704700F0004343F0FE4040F4000070470F
:100BA0007FEA226216BF08467FEA236301464202BB
:100BB00006BF5FEA412390EA010F40F480007047CE
:100BC0004FF0000304E000BF10F0004348BF404274
:100BD0005FEA000C08BF704743F0964301464FF0B0
:100BE00000001CE050EA010208BF70474FF000030C
:100BF0000AE000BF50EA010208BF704711F000434D
:100C000002D5404261EB41015FEA010C02BF84461C
:100C10000146002043F0B64308BFA3F18053A3F57B
:100C20000003BCFA8CF2083AA3EBC25310DB01FAC2
:100C300002FC634400FA02FCC2F12002BCF1004F46
:100C400020FA02F243EB020008BF20F001007047D7
:100C500002F1200201FA02FCC2F1200250EA4C002B
:100C600021FA02F243EB020008BF20EADC70704771
:100C700042000ED2B2F1FE4F0BD34FF09E03B3EB06
:100C8000126209D44FEA002343F0004323FA02F032
:100C900070474FF00000704712F1610F01D142021E
:100CA00002D14FF0FF3070474FF00000704700BF97
:100CB00053B94AB9002908BF00281CBF4FF0FF31C3
:100CC0004FF0FF3000F06CB9ADF1080C6DE904CEC7
:100CD00000F006F8DDF804E0DDE9022304B0704717
:100CE0002DE9F047089E0D4604468E46002B40F045
:100CF00082808A42174646D9B2FA82F24AB1C2F1DC
:100D0000200105FA02F320FA01F1974041EA030EAF
:100D100094404FEA1748230CBEFBF8FCB9B208FB1D
:100D20001CEE43EA0E430CFB01F098420AD9FB1873
:100D30000CF1FF3580F01681984240F21381ACF13E
:100D4000020C3B441B1AA4B2B3FBF8F008FB1033AF
:100D500044EA034400FB01F1A14209D93C1900F126
:100D6000FF3380F00181A14240F2FE8002383C4412
:100D7000641A40EA0C4000211EB1D4400023C6E9A9
:100D80000043BDE8F08702B9FFDEB2FA82F2002A22
:100D90004FD1CB1B4FEA174E1FFA87F80121B3FB47
:100DA000FEFC250C0EFB1C3345EA034508FB0CF347
:100DB000AB4207D97D190CF1FF3002D2AB4200F2F1
:100DC000E7808446ED1AA3B2B5FBFEF00EFB10558A
:100DD00043EA054408FB00F8A04507D93C1900F197
:100DE000FF3302D2A04500F2D7801846A4EB0804D6
:100DF00040EA0C40C0E78B4208D9002E00F0AF80DB
:100E00000021C6E900050846BDE8F087B3FA83F182
:100E100000294BD1AB4202D3824200F2B780841A40
:100E200065EB030301209E46002EAAD0C6E9004EC2
:100E3000A7E7C2F1200C01FA02F3974020FA0CF068
:100E40004FEA174E21FA0CFC1843BCFBFEF1050CCF
:100E50000EFB11CC1FFA87F845EA0C4501FB08F39D
:100E6000AB4204FA02F409D97D1901F1FF3C80F08C
:100E70008B80AB4240F2888002393D44EB1A85B248
:100E8000B3FBFEF00EFB103345EA034500FB08F30D
:100E9000AB4207D97D1900F1FF3C71D2AB426FD94B
:100EA00002383D44EB1A40EA014178E7C1F1200CD9
:100EB0008B4022FA0CF71F4320FA0CF405FA01F3D9
:100EC0004FEA174E25FA0CF51C43230CB5FBFEF92F
:100ED0001FFA87F80EFB195543EA054509FB08FA86
:100EE000AA4502FA01F200FA01F308D97D1909F1C5
:100EF000FF3047D2AA4545D9A9F102093D44A5EBE7
:100F00000A05A4B2B5FBFEF00EFB105544EA0544F9
:100F100000FB08F8A04507D93C1900F1FF352DD298
:100F2000A0452BD902383C4440EA0940A4EB080410
:100F3000A0FB02894C45C6464D4619D316D05EB17A
:100F4000B3EB0E0264EB050404FA0CFCCA404CEA55
:100F50000202CC40C6E900240021BDE8F0873146FA
:100F600030460EE7AC46EDE6184601E74345E6D2CB
:100F7000B8EB020E69EB07050138E0E72846D3E736
:100F800060468FE78146BAE7614677E708464BE758
:100F9000ACF1020C3D4415E702383C4426E700BFA3
:100FA000704700BF000000002DE9F04F8A48DFF8CD
:100FB00074B28FB005F095FD2822002104A805F039
:100FC0007CFF4FF0FF3385484FF0FF3204F0B4FE52
:100FD000834B1D88834B00241B880293C5F57F75C6
:100FE0000335264623462746A2463BB904A90922D3
:100FF000486841F8040B013AFAD10D950EAA02EBAC
:101000008302092B52F8282C924435D10A239AFBEB
:10101000F3F0FFF77BFA02460B46CDE900236CA301
:10102000D3E90023FFF7DCFA02460B4680468946E7
:10103000DDE90001FFF71EF9FFF7E4FC4B460390E2
:101040004246DDE90001FFF713F9FFF7DBFC0DF184
:10105000100C00235CF8042B03998A4203DA8242C5
:10106000C4BFBF18013601330A2BF3D126B197FB59
:10107000F6F292B2029201240133092BB5DD14B1CC
:10108000584B029A1A80DBF80030002B74D1564876
:10109000564E05F026FD03250A2701F0FFF8044609
:1010A000303CC0B2E4B201F0EBF8092C6BD95048E7
:1010B000504E05F016FD03250A2701F0EFF804460F
:1010C000303CC0B2E4B201F0DBF8092C62D94A48E6
:1010D0004A4E05F006FD05250A2701F0DFF8044613
:1010E000303CC0B2E4B201F0CBF8092C59D94448E5
:1010F000444E05F0F6FC04250A2701F0CFF804461B
:10110000303CC0B2E4B201F0BBF8092C50D93E48E3
:101110003E4E05F0E6FC03250A2701F0BFF8044621
:10112000303CC0B2E4B201F0ABF8092C47D93848E2
:1011300005F0D7FC0326002401F0B0F80546303D49
:10114000C0B2EDB201F09CF8092D06D804EB84047E
:1011500005EB4404013EA4B2EED16423C4EB842425
:10116000B4FBF3F42B4B2C481C801E4B198805F064
:10117000B8FC2A4805F0B5FC0123CBF8003028481C
:1011800004F0BAFD1DE73368013D07FB03443460FA
:1011900083D18CE73368013D07FB034434608CD175
:1011A00095E73368013D07FB0344346095D19EE722
:1011B0003368013D07FB034434609ED1A7E73368E1
:1011C000013D07FB03443460A7D1B0E7AFF30080D3
:1011D0009A9999999999B93FBE7E0000AC06002072
:1011E000820D0020840D0020D37E000070060020B8
:1011F000037F000094060020327F0000F0060020EC
:10120000617F000080060020917F00008C06002096
:10121000C57F0000800D0020E37F0000BC7E000041
:10122000BC0600209C000020014B01221A60704780
:1012300098000020024A00231360024A136070479E
:10124000980000209C000020074B1B68012B09D14F
:10125000064A138840F2FE315D338B42C8BF40F22C
:10126000FF331380704700BF98000020800D0020DE
:10127000054B1B68012B06D1044A13885D3B002BEC
:10128000D8BF00231380704798000020800D0020F5
:101290002DE9F04F064687B00D461746836804AA2D
:1012A0005B680D219847039080BBDDE9044BA5FBEB
:1012B000048905FB0B99184A002340464946FFF76D
:1012C000F7FC164B4FF0FF324B4508BF42458246B4
:1012D0001FD3A7FB044507FB0B550F4A00232046ED
:1012E0002946FFF7E5FC0D4A4FF0FF31AA4208BF3F
:1012F000A14203460DD3B2680399009114680D21F1
:1013000052463046A04707B0BDE8F08F6FF00400AA
:10131000F9E76FF08500F6E740420F003F420F000B
:10132000014604488368DB690BB1012218476FF05E
:1013300085007047DC79000070B51348134E144CDB
:10134000144D05F0CEFB4FF0FF324FF0FF33304627
:1013500004F0F2FC002323602B880F4940F2FF3297
:10136000D31A0B600D4909684B43B3FBF2F20C4BE7
:101370001868FFF78DFF014620600028E3D0094878
:1013800005F0AFFBDFE700BF687E0000DC06002051
:10139000A4060020800D00209C060020A000002054
:1013A00098060020817E000070B51348134E144C3F
:1013B000144D05F096FB4FF0FF324FF0FF333046EF
:1013C00004F0BAFC002323602B880F4940F2FF325F
:1013D000D31A0B600D4909684B43B3FBF2F20C4B77
:1013E0001868FFF755FF014620600028E3D0094840
:1013F00005F077FBDFE700BFA67E0000BC060020FB
:10140000A4060020800D00209C060020A0000020E3
:1014100098060020817E00002DE9F0475D4805F028
:1014200060FB06F065FA4FF47A730A46A0FB0301ED
:1014300003FB0211C30BDFF888A1574F43EA414376
:10144000CA0B13F57A7442F100050026D146013625
:101450003B2ECCBF3B68514BDFF86881D2BF1E608A
:1014600001333B603B68C8BF00263B2B06DDD8F844
:101470000030002201333A60C8F80030D8F800305C
:101480004749172B05DD0B6800220133C8F80020FF
:101490000B60DAF800300A6803F1FF3CBCF10A0F78
:1014A00012D91E2A04DD012213440A60C9F8003053
:1014B000D9F800300C2B14DD3A4A0123C9F800306A
:1014C0001368013313600CE040F2D56020FA0CF091
:1014D000C00739D51F2A04DD012213440A60CAF867
:1014E0000030314B1B68012B0FD12E4BD9F8002057
:1014F0001B6809682D4801F0A1FD284B3A681B685C
:10150000D8F800102A4801F099FD2A4B1B68012BDE
:1015100038D1294804F0F0FB06F0EAF94FF47A7C60
:10152000A0FB0C230CFB0133D00B40EA4340D90B4A
:10153000A04271EB05038ADA201A05F017F914F5B9
:101540007A7445F1000582E7022BAAD1154800689C
:101550004FF0640E90FBFEFC0EFB1C0CBCF1000F68
:101560000ED14FF4C87E90FBFEFC0EFB1C0068B150
:101570001D2AB6DD01230B600323C9F80030B0E754
:101580001C2AF6E7002BC7D10C48C3E71E2A8ADCC9
:10159000A7E700BFF07F000088060020A806002013
:1015A0006C060020EC0600209C000020108000004B
:1015B0002580000098000020DC060020AC060020FA
:1015C000900600207C0600202DE9F043404887B0BB
:1015D00005F087FA06F08CF94FF47A730A46A0FBFF
:1015E000030103FB0211C30B43EA4143CA0B13F18E
:1015F0006404384E384F42F10005DFF80491DFF8FB
:1016000004811422002101A805F057FC0223CDE932
:10161000039302930A238DF81430304B186818BBDB
:101620002F4805F05EFA4FF0FF31C8F800102D4842
:1016300005F057FA2C4804F05FFB06F059F94FF417
:101640007A7CA0FB0C230CFB0133D00B40EA434017
:10165000D90BA04271EB0503CFDA201A05F086F80A
:10166000643445F10005C8E7836801A95B689847C1
:101670000146306010B11D4805F033FA3168C8F8F2
:1016800000100029D3D1B9F80080B8F5806F03D3DA
:10169000174805F026FACDE74FF47A7000FB08F002
:1016A000FFF792FA3946FEF72BFDFFF7E1FA114BEF
:1016B00082B21A60104B1B68012BBBD1C8F57F7139
:1016C000C2F53B620D480832033105F00AFAB1E772
:1016D000F07F0000A40600200C30403B2C060020C8
:1016E0003880000087800000CC0600206780000062
:1016F000AF800000300600209C000020C980000060
:10170000820D00207406002010B500F0D7FD40497E
:101710001C22002000F0AEFD3E483F4C03F070FD5F
:10172000206020B93D48BDE8104005F0DAB93C48DA
:1017300005F0D7F93B4803F063FD3B4B186008B94F
:101740003A48F0E73A4805F0CCF9206803214FF415
:10175000807204F0F1FF374C00280146206004DA63
:10176000BDE81040344805F0BCB940F211120B211D
:10177000324804F0E1FF20600B21304805F00BF8FF
:1017800020602F482F4B43604FF400638360FFF7C6
:10179000C7FD40F211120C21284804F0CDFF206053
:1017A0000C21264804F0F7FF20602748274B4360B0
:1017B0004FF480538360FFF7B3FD40F211121821FC
:1017C0001E4804F0B9FF206018211C4804F0E3FF14
:1017D00020601F481F4B43604FF080738360FFF70A
:1017E0009FFD40F211121921144804F0A5FF20605A
:1017F0001248192104F0CFFF20601748174B4360AF
:10180000BDE810404FF000738360FFF789BD00BF53
:10181000A7820000E880000078060020EF8000002A
:10182000108100002C810000980600203281000009
:1018300052810000A40600206C810000DC790000C9
:1018400038060020491200004406002071120000F2
:1018500050060020291200005C060020351200000E
:1018600010B50C480C4C03F0CBFC206010B90B48B1
:1018700005F037F92068836809491B689847094BC8
:101880000146186010B1084805F02BF9074B0122FA
:10189000DA6010BD908100002C06002096810000C7
:1018A000607E000074060020B881000000700040D7
:1018B000F0B589B0FFF728FFFFF7D2FF6A486B4EFB
:1018C00001F0BCFB6A4801F0B9FB03250A2700F0D0
:1018D000E5FC0446303CC0B200F0D2FC092C05D82F
:1018E0003068013D07FB00443460F0D16148624E2E
:1018F00001F0A4FB03250A2700F0D0FC0446303C8D
:10190000C0B200F0BDFC092C05D83068013D07FBD2
:1019100000443460F0D15948594E01F08FFB052541
:101920000A2700F0BBFC0446303CC0B200F0A8FC23
:10193000092C05D83068013D07FB00443460F0D124
:101940005048514E01F07AFB05250A2700F0A6FC0D
:101950000446303CC0B200F093FC092C05D8306836
:10196000013D07FB00443460F0D14848484E01F087
:1019700065FB05250A2700F091FC0446303CC0B207
:1019800000F07EFC092C05D83068013D07FB0044BF
:101990003460F0D1012200213E4805F053FF0122BE
:1019A00000213D4805F04EFF012200213B4805F093
:1019B00049FF012200213A4805F044FF0026002794
:1019C00000240125CDE90667CDE90354CDE90144A2
:1019D000344B354900944FF48062344804F008FADF
:1019E000334B1860334B34490094CDE90667CDE999
:1019F0000354CDE901444FF48062304804F0F8F913
:101A00002F4B18602F4B30490094CDE90667CDE984
:101A10000354CDE901444FF480622C4804F0E8F906
:101A20002B4B18602B4B2C490094CDE90667CDE970
:101A30000354CDE901444FF48062284804F0D8F9FA
:101A4000274B1860274B28490094CDE90667CDE95C
:101A50000354CDE901444FF48062244804F0C8F9EE
:101A6000234B186009B0F0BDE88100006C0600202F
:101A7000FA8100001B820000900600203D820000D9
:101A8000EC060020618200007C06002082820000BB
:101A900088060020DC060020AC060020BC060020E2
:101AA000CC060020C9150000E011002080040020B1
:101AB000A00600201914000000160020800300205A
:101AC0006806002039130000201A002000040020BE
:101AD00084060020A90F0000401E00208002002084
:101AE00028060020A9130000602200200003002027
:101AF000340600202DE9F04F91B08B4602909246BB
:101B00001C4600259AF8000008B928465EE32528FF
:101B10000AF1010707D0029B594698470028C0F2F6
:101B20005583013510E2182200210AA805F0C5F9F5
:101B30009AF80130252B78D0002294461646964616
:101B40001046394617F8013B2B2B00F09D8000F220
:101B50009480202B00F09B80232B00F09A8028B1EA
:101B60009DF8300040F004008DF83000BEF1000F09
:101B700005D09DF8300040F008008DF830002EB1FF
:101B80009DF8300040F010008DF83000BCF1000FDF
:101B900005D09DF8300040F020008DF830002AB1CB
:101BA0009DF8302042F040028DF830209DF8302022
:101BB00002F04400442803D16FF386128DF83020E0
:101BC0009DF830202A2B42F080028DF830207BD106
:101BD0009DF8312042F001024B1C8DF831201A781B
:101BE0002E2A9DF831200CBF0121002161F3410212
:101BF0008DF8312074D15A782A2A6AD00133002115
:101C00000A26184610F8012BA2F13007092F40F2DE
:101C10008E809DF830200E91C2F3400040EAD171D1
:101C200061F341028DF830205AE00AF102078DF885
:101C300033309DF83130D90740F1498154F8049B85
:101C4000B9F1000F07DA9DF8302042F004028DF858
:101C50003020C9F100095A0740F1428154F8048B41
:101C6000B8F1000F80F241819DF831306FF34103EC
:101C70008DF831304FF0FF3837E12D2B0CD0302B61
:101C80007FF46DAF01225CE74FF0010E59E70126AA
:101C900057E74FF0010C54E7012052E70CFB02021A
:101CA000303A33461E4616F8010BA0F13007092FD3
:101CB000F4D9994293D09DF830100D92D20F62F36F
:101CC00041018DF830108AE70B4600224FF00A0CD4
:101CD000E8E79DF8312042F004028DF8312002330C
:101CE0001F4617F8012B6C2A41D025D8682A2BD023
:101CF0006A2A46D04C2A4CD01F4617F8012B9DF873
:101D000031308DF83320782A00F2D980572A4DD807
:101D1000412A03D0453A022A00F2D1809DF83230A0
:101D2000042262F302038DF8323001239EE006FBA9
:101D300001213039034664E7742A26D07A2ADBD1A0
:101D40009DF8313006220DE05A78682A9DF831203E
:101D500006D1012161F3C6028DF831209F1CCCE72A
:101D60001346022262F3C6038DF83130C5E75A7874
:101D70006C2A9DF8312001D10421EBE713460322A0
:101D8000F0E79DF831300522ECE79DF8313007226D
:101D9000E8E7BDF8303023F4F04323F0020343F4C6
:101DA000804343F00203ADF83030A6E7A2F15801BA
:101DB000202900F2848001A050F821F0811E00004B
:101DC000BF1E0000BF1E0000BF1E0000BF1E00009F
:101DD000BF1E0000BF1E0000BF1E0000BF1E00008F
:101DE0001D1D0000BF1E0000811E0000411E0000DE
:101DF0001D1D00001D1D00001D1D0000BF1E000058
:101E0000411E0000BF1E0000BF1E0000BF1E0000DC
:101E1000BF1E0000891E0000811E0000A51E0000DC
:101E2000BF1E0000BF1E0000A51E0000BF1E000058
:101E3000811E0000BF1E0000BF1E0000811E0000AA
:101E40009DF83210012003F0780360F30201402B6B
:101E50008DF8321002BF9DF8301041F001018DF86D
:101E60003010632A31D1003B18BF01239DF8302088
:101E7000C2F340010B4363F341028DF83020D8E6F2
:101E80009DF832100220DEE79DF8322003F078033F
:101E9000A3F14000032161F3020243428DF8322096
:101EA0004341E3E79DF83220032113F0780F61F3FB
:101EB00002028DF8322014BF01230023D6E79DF8DB
:101EC000303043F001038DF830300023CEE79DF928
:101ED0003020002AB4BFDDF834904FF0FF39BAE665
:101EE0009B077FF5C7AEDDF838809DF831200023D1
:101EF000CDE90D339DF8323003F00703012BC2F317
:101F0000C30236D1D31E042B20D8DFE803F0030729
:101F1000071F1F0054F8040BC11704E0073424F016
:101F20000704F4E80201CDE90A019DF8303013F00E
:101F3000030654D002983B465246594604F089FCA9
:101F40000028C0F243810544BA46DBE554F8040B8F
:101F5000012A4FEAE071CDE90A0105D19DF8283048
:101F60000A9300230B93E0E7022ADED1BDF9280093
:101F7000D2E7022B23D1D31E042B13D8DFE803F0C2
:101F8000030A0A12120020680A900021231D0B91F7
:101F90001C46CAE7073424F00703F3E80201CDE941
:101FA0000A01F5E754F8043B0A93012A4FF00003B5
:101FB0000B93D3D0022AB8D1BDF82830D0E7042B38
:101FC00007D1073424F00704F4E80201CDE90A013F
:101FD000ABE7032B04BF54F8043B0A93A5E79DF835
:101FE00033007828B0D8622822D825283FF493AD52
:101FF0005828A9D10DF126030093DDE90A0104ABAD
:102000000CAA04F0DBFB8246B8F1000F0DF12600AC
:102010000CDB9DF83020A0EB0A036FF38612984585
:102020008DF8302002D9A8EB03030D9380463DE0E4
:102030006338152888D801A151F820F0BD20000090
:1020400021210000491F0000491F0000491F000016
:10205000491F000021210000491F0000491F000006
:10206000491F0000491F00007F2100004D21000092
:1020700051210000491F0000491F00009520000069
:10208000491F00004D210000491F0000491F0000AA
:102090004D210000B8F1000FDDF828A00ADB414611
:1020A000504604F0EAFE0AEB00080026BAF1000FE1
:1020B0000CD149E7504604F0D9FEF4E70A9B8DF8AD
:1020C000103000260DF111080DF1100AA8EB0A03DB
:1020D00006B101339DF83220D0066BD5023352068B
:1020E0000D9948BF0E9A0B4448BF9B18B9F1000FD9
:1020F00079DD9DF83020A9EB0309C2F38003039337
:10210000530770D4500664D546B1029B59463046F9
:10211000984700285ADB039B01351E46302359E0BF
:102120001E0711D413F0100618BF2026DDE90A237C
:10213000002A73F10001BFF65DAF524263EB430327
:10214000CDE90A232D2655E72B26EFE7002651E798
:102150000A9848B30DF1260300930CAA04AB0021A2
:1021600004F02CFBBDF8323003F0EF0343F4F043EE
:1021700043F010038246ADF83230002644E70A9B54
:10218000072A3FF6E1AEDFE802F00D04060D08086D
:102190000D0D1D70D8E61D80D6E62846E917C3E967
:1021A0000001D1E61D60CFE6DFF8C4800646A8F145
:1021B000050A8BE7110748BF013390E718460393E0
:1021C0005946029B98470028039B04DA11B0BDE8EA
:1021D000F08F20234D444A46002AA5EB090109F15E
:1021E000FF39EBDC0D4636B1029B59463046984725
:1021F0000028EBDB01359DF83230D90601D41A07EF
:1022000006D5029B5946302098470028DEDB013571
:102210009DF83230DB0607D59DF83300029B594606
:1022200098470028D2DB01350D9E2E44731B002BEE
:1022300016DC029843465246594604F00AFB002831
:10224000C4DB0544A944A9EB0503002B7FF77CAE52
:10225000029B5946202098470028B7DB0135F2E75A
:10226000029B5946302098470028AFDB0135DDE757
:10227000C9820000014804F0FFBC00BFF406002042
:1022800007B501228DF807000DF10701024804F09F
:10229000F3FC03B05DF804FBF406002007B501224F
:1022A0000DF10701044804F010FD0028A8BF9DF8B7
:1022B000070003B05DF804FBF406002038B5104DAC
:1022C000284605F07AF9A8B10E48294600F012FB1D
:1022D000044668B9AB689B6C7BB10B4909484FF465
:1022E000007204F09BFD09490648402204F07DFD80
:1022F000204638BD6FF01204FAE76FF08504F7E767
:10230000247A0000F4060020C60D0020860D00206F
:10231000014804F07FB800BF287C000008B5D0B1A8
:102320004368042B11D100220368BFF35B8F53E88D
:10233000001F012903D143E800200028F7D1BFF393
:102340005B8F074808BF104608BD3BB1006803F02B
:1023500031F90020F8E76FF4E040F5E70148F3E7D2
:10236000E98FFFFFEA8FFFFF10B5044618B90D4B48
:102370000D485B689847616808290DD031F0040367
:102380000AD011F0020108D00848214605F05CF996
:10239000002323600023636010BD2068142204F032
:1023A0008CFDF7E7B4010020CA8200003807002046
:1023B00010B5044618B9164B16485B689847636811
:1023C000042B23D0082B21D0CBB92368BBB91248EA
:1023D0004FF0FF324FF0FF33214603F03DF808B9CC
:1023E00023681BB90A4B0D485B6898472068142284
:1023F000002104F062FD636843F00203636020681B
:1024000005F04BF9636843F00103636010BD00BF42
:10241000B4010020CA82000038070020F0820000CA
:1024200008B508B34368042B10D101220368BFF339
:102430005B8F53E8001F002903D143E800200028E8
:10244000F7D1BFF35B8F0BD1002008BD53B10068FB
:102450004FF0FF324FF0FF3303F02EF80028F3D097
:102460000348F2E70348F0E76FF4E040EDE700BF10
:10247000E98FFFFFEA8FFFFF08B5064906484023B2
:10248000142205F0C6F8BDE808400449044804F0E9
:1024900023B800BF5407002038070020407C00000C
:1024A000307C00002DE9F84FB0F8189019F00808BA
:1024B000044693460DD001290CBF49F0100949F09C
:1024C0002009A0F818908BF31188BFF36F8FBDE837
:1024D000F88F09F00709022907D1204604F054FAC1
:1024E0000028F0D00128238B50D16769218B002F61
:1024F00015DA256821F00701C4E9008841F00101DF
:1025000021830026218B01F0070ACA4502D0A36867
:10251000002B5CD10DB9002E74D0002358E001F0DF
:1025200007035A1F012A20D821F00701062B25682E
:1025300089B2C4E900880CD1002D2B4638BF002396
:102540002BB1628B1B6801326283002BF8D141F002
:1025500002012183204604F017FA06460028D1D054
:10256000238B43F020032383CBE7042B0CD121F0F2
:10257000070189B22183204604F006FA05460028A7
:10258000BFD041F0200121830025BAE7032809D1FB
:10259000226923F00703166843F00603238300250E
:1025A0002F46AFE7042806D1226923F007035668B7
:1025B00043F00403F2E7052806D1226923F007035C
:1025C000966843F00503E9E700252E46E8E7012376
:1025D00041F0080121838BF31188BFF36F8F03BB98
:1025E000002D33D116B121492046B0474FF02003CA
:1025F000EFF3118B83F31288BFF36F8F238B23F0DC
:1026000008032383238BDA0628D523F010032383C2
:102610000121B4F8189009F0070900297FF45BAF95
:1026200051E7A1680029DBD00B68D1F804B0002B7A
:1026300038BF0023994652463B462046D847B9F159
:10264000000FCDD0D9F800304946EEE729463B4689
:10265000524620462D6804F0B3F9C1E713F020017B
:102660001EBF23F0200323830221D2E7ED6900007F
:102670002DE9F84305464FF02003EFF3118683F36D
:102680001288BFF36F8F104B1C68002C38BF0024DA
:102690009CB10E4FDFF838804FF00C09D4E90132BD
:1026A000002D08BF13462BB198F8142009FB02F245
:1026B000B85C98472468002CF0D186F31188BFF3EA
:1026C0006F8FBDE8F88300BF540C0020600C002021
:1026D000300D002000F01F0301229A400A4BBFF387
:1026E0005B8F400903EB800050E8003F43EA0201A2
:1026F00040E8001CBCF1000FF6D1BFF35B8F1A421B
:1027000014BF0120002070476C0C002030B51D4B19
:102710001D7DBFF35B8F05F01F0301229A401A4B0A
:10272000690985B0D04303EB810353E8001F01EA38
:10273000000443E8004CBCF1000FF6D1BFF35B8FFF
:10274000114217D0114C0C2202FB054207CA01AB03
:1027500083E807000E4A7AB193E8070004F0C9FB4A
:102760000020FFF785FF0C236B430022E118E250A5
:10277000C1E9012205B030BD82F31188BFF36F8F2C
:10278000EEE700BF300D00205C0C0020600C002044
:10279000F36E00002DE9F041374BDFF8F4801C7D2B
:1027A00088B007462046FFF795FF60B96E463A4667
:1027B0002146304604F0A2F996E807000C2505FBF7
:1027C000048585E807000C23634308EB030218F82F
:1027D0000300650904F01F06C8B37B1C0FD0D2F8B4
:1027E00008E02648264A4FF4004C00210023ECFB69
:1027F0000E01FEF75DFA0121381A05F05BF802F0D0
:1028000079FF0120FFF734FFBFF35B8F1D4B0122DF
:10281000B24003EB850353E8001F114343E8001067
:102820000028F8D1BFF35B8F0C2303FB048494E8EA
:10283000070005AB83E80700134A1AB193E80700C5
:1028400004F044FBFFF762FF03F02EF901200F4A6A
:10285000BFF35B8F0123B340DB4302EB850555E8F3
:10286000002F1A4045E800210029F8D1BFF35B8F03
:1028700008B0BDE8F08100BF300D00203F420F00DE
:1028800040420F005C0C0020CD6E00006C0C00205C
:10289000600C00200B6801330B60014B1B6818476C
:1028A000C4000020014B1860704700BFC400002026
:1028B00007B50B46002102460191034801A9FFF725
:1028C00019F903B05DF804FB9528000008B54FF036
:1028D0002002EFF3118382F31288BFF36F8F00F0B1
:1028E00003FC034804F0FDF800F02AF8FCE700BF01
:1028F0001D830000024610B5084699B100244FF030
:10290000FF33C2E90F4313628B681160C2E90544CB
:10291000C2E90D44D46143B19B6C33B1044998477B
:10292000204610BD6FF01200FBE71846F9E700BF24
:10293000CB6B0000014910220A60704710ED00E0E7
:1029400072B6404080F31188BFF36F8FBFF34F8F93
:1029500030BF62B6BFF36F8F704700BF72B6494099
:1029600081F3118820BF80F3118862B6704700BFE1
:1029700001B572B60B4A906900281EBF0021916113
:1029800004F040FE62B6EFF30580A0F110004FEABC
:10299000C0000549014409C99847BDE80140034901
:1029A00008470000300D00206C7A00009D2B0000CD
:1029B00030BFFFF7FDBF00BF12498A684FF03000FB
:1029C0001044EFF3098C80E8F01F202080F3128878
:1029D000BFF36F8F0C4F4FF00066CA698A603E608C
:1029E000506F0023536780F3118804B5104600F040
:1029F00075FABDE8044002F1300090E8F01F8CF356
:102A000009887047300D002004ED00E01EF0040F2F
:102A10000CBFEFF30880EFF30980816911F8021C05
:102A20000229FFD001B504F00DFA01BD43B2002B1D
:102A300008DB012200F01F0002FA00F05B09024AE5
:102A400042F82300704700BF00E100E0054B420957
:102A500000F01F0053F82220012303FA00F0104079
:102A6000704700BF00E100E043B2002BA8BF03F1B4
:102A7000604301F10101B8BF064B4FEA4111ACBF01
:102A800003F5614300F00F00C9B2B4BF195483F8D5
:102A90000013704714ED00E00B4A08B50B4B22F011
:102AA0007F029A60BFF34F8FBFF36F8FD3F88820F8
:102AB00022F47002C3F8882002F030FC03F024FCFA
:102AC00000F0A0F902F034FC0000000000ED00E08E
:102AD000094A0A49936809689967094958674B6820
:102AE00043F080534B60002383F31188BFF36F8F53
:102AF0009368986F704700BF300D0020D47D0000B0
:102B000000ED00E042F8203C009B42F81C3C0A49E2
:102B1000019B42F8183C029B42F8143C21F0010151
:102B20004FF0807342F8043C42F8081C0023203A1E
:102B300002654367704700BF076B00000B4A0346FE
:102B4000906890B113F1160F406E05D0A0F12002ED
:102B50009A4206D8834204D281422CBF002101212F
:102B600000E00021002908BF00207047300D002040
:102B700008B5094B98600D46144600F0AFF92046A1
:102B800085F30988002163B681F31188BFF36F8F45
:102B90000022002303F0B7FF300D0020044B99689A
:102BA000D869884203D003494FF080520A607047C9
:102BB000300D002004ED00E0EFF30880EFF3098111
:102BC00001B5724600F092F801BD00BF002080F30D
:102BD0001488BFF36F8F04F0B7FE00200D49086022
:102BE000BFF34F8F0C4880F3088800F027F92020AE
:102BF00080F3118809484FF40261401880F3098876
:102C0000EFF314800221084380F31488BFF36F8F21
:102C1000FFF742FF94ED00E0802A0020002C002006
:102C200038B5194B14469A6A9A6A9A6A054690070B
:102C300019D5586B9A6A120615D519B19A6A22F0FD
:102C400080029A629A6A9A6A9A6AD1060ED49B6A3C
:102C50009A070BD400200C4A936A43F0FF03936257
:102C60000023237038BD6FF01500EBE7064B5B685F
:102C70001B05EFD52946FFF761FF0028EAD080F356
:102C800009880220E7E700BF00ED00E00D4B9A6ADB
:102C90009A6A9A6A920508D59A6B9A6A120404D5C0
:102CA00018B19A6A22F400429A62064B9A6A9A6AAA
:102CB000D20558BF9A6A9A6A002042F47F429A620B
:102CC0000870704700ED00E0074B9A6A9A6A9A6AAA
:102CD0009A6A9A6A9A6A9A6A6FEA02426FEA12429A
:102CE0009A620020704700BF00ED00E070B53E4BD7
:102CF0005B688AB00D46C3F30803002686F311888B
:102D0000BFF36F8F02F07F41B1F17F4F11D102F01D
:102D10000C0108290DD0120701D405460126002216
:102D2000033B8DF80720032B57D8DFE803F0044E50
:102D3000524B3546F3E72C4BDC6A14F002044CD1BD
:102D4000DA6A002A18DBDB6A5B0015D5AB6933F859
:102D5000022C4DF602739A420DD003F1604303F644
:102D600026631B7803B30DF1070201212846FFF704
:102D700057FF044600E02C689DF8073093B92022E5
:102D8000294602A804F08EF8099B46B3C3F3080253
:102D900022B96FEA53236FEA4323099302A920461D
:102DA00004F04EF80AB070BD104B1B782BB10DF13A
:102DB00007010120FFF76AFFDBE70D4B1B889BB281
:102DC000002BD9D0FFF780FFD3E70DF107020021D8
:102DD000CCE70DF107010020ECE70024CCE723F459
:102DE000FF7323F00103D8E700ED00E029ED00E0D8
:102DF0002AED00E0024A536943F010035361704723
:102E000000ED00E0044800232021C2180133302BDC
:102E100082F80013F9D1704700E100E0064A11681A
:102E20000023C1F3072118468B4200D170479360FD
:102E300010610133F8E700BF90ED00E008B572B60D
:102E4000002383F31388FFF7E9FF144B4FF0FF32A1
:102E5000C3F88020C3F88420C3F88820C3F88C20EE
:102E6000C3F89020C3F89420C3F89820C3F89C209E
:102E7000C3F88021C3F88421C3F88821C3F88C21CA
:102E8000C3F89021C3F89421C3F89821C3F89C217A
:102E900062B6BFF34F8FBFF36F8F08BD00E100E054
:102EA000064B9B68834207D1EFF3058323B1044AA5
:102EB000536843F08053536002F0CCBE300D0020C5
:102EC00000ED00E0024B034A0348012100F068B81E
:102ED0000000042000000020547C0000426E054BDE
:102EE000203A1A60044A2021C3E901121846012140
:102EF00000F060B8700C002000000B15F0B51E4FFC
:102F000000268E4201DB1046F0BD446884B353B105
:102F100004F1FF3C14EA0C0F18D11F2C16D90568D8
:102F20001CEA050F12D1202C0568D0F808C0D2B2D7
:102F30000FD9B4F1004F0ED8013CB4FA84F4C4F1B7
:102F40001F046400072A4CEA040406D96FF0150236
:102F5000D9E70824F6E73E24F4E725F01F051543DA
:102F600045F0100544F00104BA60FD6001323C6197
:102F700001360C30C5E700BF90ED00E0034B0522A1
:102F80005A60BFF34F8FBFF36F8F704790ED00E033
:102F9000BFF35F8F014B00225A60704790ED00E055
:102FA00010B5034C01232278FFF7A8FF207010BD55
:102FB000C60F002008B5084A00231278FFF79EFFCD
:102FC00010F1160F03D0054B0022072800DD08BDC5
:102FD00098601A610130F8E7C60F002090ED00E01C
:102FE00013490868082810B51ED8FFF7D1FF114C07
:102FF00049680022904201F10C0105D10E4B187076
:10300000FFF7BCFF002010BDA26051F80C3C23F07C
:103010001F03134343F01003E36051F8043C43F0F3
:10302000010323610132E5E74FF0FF30EBE700BF1A
:10303000607C000090ED00E0C60F00200FB407B5E3
:1030400004AB022153F8042B04480193FEF752FD10
:1030500003B05DF804EB04B0704700BF696E000078
:10306000014B1860704700BFC800002002390129D9
:1030700002D8034B1B6818474FF0FF30704700BF62
:10308000C80000204FF02003EFF3118183F3128872
:10309000BFF36F8F0F4A0123C2F840354FF08042D3
:1030A000C2F878350C4A1268082A08D10B4A12680F
:1030B000052A04D80A48825C0AB10A4A13604FF014
:1030C00080430122C3F8802581F31188BFF36F8FFD
:1030D0000020704700E00140300100103401001072
:1030E00055830000380600404FF08043C0B2C3F85B
:1030F0001C05BFF34F8F0549054BCA6802F4E06217
:103100001343CB60BFF34F8F00BFFDE700ED00E03E
:103110000400FA0520B1034B800143F00103184776
:10312000704700BF207C0000054A0123C2F800352B
:1031300008B1D36070471360024A1360704700BF44
:103140000070004004700040087970B500F01F0462
:10315000072C1FD80B78092B1CD8DFE803F00606D4
:103160000606061B051E1B2005234A78032A18D0D5
:10317000042A0FD100254A8844F20A06B24244D0FC
:1031800011D844F20306B2423BD044F20506B242E3
:1031900039D0D2B36FF0150032E00623E5E70723FC
:1031A000E3E70125E7E744F21406B2422FD044F2E8
:1031B0002806B2422DD044F20F06B242EAD10322D1
:1031C000C0F340101B0243EA005343EA053343EACD
:1031D0000243220102F1804202F5E0420020C2F8DF
:1031E0001835230103F1804303F5E0438A79C3F8DE
:1031F0001425C3F81005084B1C444B7984F8903013
:1032000070BD0022DCE70122DAE70222D8E70422BF
:10321000D6E70522D4E700BF000000202D4B1A6836
:1032200010B5002A48D000221A601B682A4C2B4B8C
:1032300001211960C3F8F824636EC3B3E36F43B18F
:10324000B4F8882004F164019847012814D00228BA
:1032500028D0B4F88830B4F884209A4222D90133B7
:10326000A4F888301E4BD3F82C26D3F8341689B234
:1032700002EB4102C3F82C26A36F2BB994F8760019
:10328000BDE81040FFF750BFBFF35B8F54E8003F2D
:103290005A1E44E800210029F8D1BFF35B8F012BAF
:1032A000ECDC10BDA36F13B10E4804F027FB0E48F1
:1032B000BDE8104002F020BD0C4B19680029F0D089
:1032C0001A60064A1B680123136042F8083C42F862
:1032D000043CE6E704710040000000200870004054
:1032E00000700040080000205000002010710040D5
:1032F000F7B50D465D484FF0FF324FF0FF3302F057
:103300001BFD686810B96FF0150497E030F0FF02FC
:10331000F9D1574C574F114620FA02F313F001032D
:1033200032D0BB1893F890C0BCF1000FEBD004EB87
:10333000021E6E7CDEF81835003E18BF012623F011
:10334000807343EA0663CEF8183502F151031B017E
:10335000013144F803C0C9B20132082ADCD12B7C08
:10336000083B062BCFD801A252F823F051340000BD
:103370000733000093330000073300004934000096
:10338000073300004D34000002F151063601A3510D
:10339000E2E70122364B0129C3F8F0256A7C59D9AE
:1033A000002AB0D1C3F8F4252A684B0012B19289E3
:1033B00002FB0333EA689A4254D32D4BAA68C3F840
:1033C0002C262F46C3F830160FCF2A4C04F1640682
:1033D0000FC63B6833602B6800262666002B3CD066
:1033E0000FCB04F1780585E80F006566A4F88860C6
:1033F00098B3BFF35B8F54E8003F44E80062002AB3
:10340000F9D1BFF35B8F1C48A66F1C4A4FF40045EF
:1034100000210023E5FB0601FDF74AFC0022CDE96F
:103420000001002304F1080002F00EFF14484FF0E1
:10343000FF324FF0FF3302F07FFC246E0B4802F0A6
:103440005BFC204603B0F0BD0222A3E70322A1E704
:1034500000229FE7082AA5D955E794F87600FFF7E0
:1034600063FEE3E76FF00B04E8E700BF40000020D5
:1034700000700040000000203F420F0040420F005B
:10348000500000200D4B10B500241C601B680C4B35
:103490001C601B680B4B1222C3F804230720FFF7A4
:1034A000C5FA224601210720FFF7DEFA0648836CA1
:1034B00013B9403002F020FC002010BD0471004020
:1034C0001071004000700040000000200E4A70B5EE
:1034D000841AA3100D4C5C430546E4B20C2000FB9B
:1034E00004200E464021084403F02EFD011E05DB9A
:1034F000074B03EBC4046368984700212846334612
:10350000BDE87040184700BF8C0C0020B76DDBB6DB
:10351000A47C00002DE9F041104E841BA310104C38
:103520005C43E4B20C256543804605F140000F463C
:103530003044402103F021FD011E09DB094A7319C3
:10354000C3E90E27084B53F83430BDE8F041184763
:1035500040463B46BDE8F041184700BF8C0C0020B8
:10356000B76DDBB6DD6F0000A47C0000002270B5F3
:10357000012104461046FFF777FA0020FFF756FABC
:103580000F4800F0C3FF0F4B984215D103F078FFAE
:1035900026690D49304603F046FA00280BDB012569
:1035A00035642469084904F11C0003F03CFA002842
:1035B00001DBE564002070BD6FF00400FBE700BF95
:1035C000013600000000AD0BB47C000001460C2366
:1035D00009484B4370B5C418D4E90E560022403355
:1035E000A263184403F0E7FC2DB132462B46034892
:1035F000BDE87040184770BD8C0C0020C4790000F5
:1036000010B1012804D07047034B1B6C5B0701D13C
:10361000FFF7DCBF704700BF8C0C002008B54FF0EF
:103620002003EFF3118183F31288BFF36F8F124AE7
:10363000136843F0020013F0010310600CD04FF048
:103640008042D2F80C34D2F80C2413F0010303D0DA
:103650000A4803F0B0FC012381F31188BFF36F8F98
:1036600023B1BDE808400020FFF7B0BFBDE8084027
:10367000012000F05BBF00BFDC0C0020CC0C002060
:10368000094BBFF35B8F53E8002F22F0020143E8A0
:1036900000100028F7D1BFF35B8FD30702D40120BD
:1036A00000F076BF704700BFDC0C00201FB5002281
:1036B0000123CDE90223094ACDF800D06B46CDF8AD
:1036C00004D003F0B1FC002805DB4FF48042002356
:1036D000684602F031FB05B05DF804FBFB6F0000AB
:1036E0002DE9F8433A49BFF35B8F0646012251E8C2
:1036F000003F41E800200028F9D1BFF35B8F33B9C8
:10370000344935484B60CB608A6003F09FF9731EE3
:10371000012B32D8012E07D14FF08043D3F81C344F
:1037200003F00303012B28D004F098F8044618B9DD
:103730002A4B1B78002B44D14FF02003EFF3118567
:1037400083F31288BFF36F8F0124254FDFF8948035
:10375000DFF894904FF08042D2F81834D2F8182451
:10376000D2030CD503F00303012B01D0012E06D1A7
:103770000CB385F31188BFF36F8FBDE8F883ACB14C
:103780002846FFF7EBF84FF08042D2F81835002BAF
:10379000E0D139680029DDD03B603B680123C2F8E5
:1037A0001835C8F88031C9F80030D3E7002121204E
:1037B00002F030FAE7E74FF080430222C3F8042317
:1037C000DBE74FF080430222C3F808230546BCE73D
:1037D000E00C00207C0C0020A80C0020071000202A
:1037E0000401004000E100E0080000400A4B70B511
:1037F000C6B21B6804463046984701280AD00A2CF6
:10380000064D03D128680D2103F029FC28683146B4
:1038100003F025FC204670BDCC000020E40C002005
:1038200008B5084B0848186003F0C7FE38B10748D0
:10383000FFF716FC0548FFF735F8002008BD6FF0CC
:103840001200FBE7E40C0020247A0000ED370000B2
:10385000420970B5034602D0012A1DD070BD0F4E3B
:10386000326951680029F9D00C6803F01F03012563
:10387000002C05FA03F538BF00248A682A4002D0DC
:103880004B6830469847002CE8D02368002B38BF9F
:10389000002321461C46F0E7014EE1E7DC790000F9
:1038A000F479000030B54068047B01F01F05B2F5E3
:1038B000005F45EA441585B04FF0000404D1284666
:1038C00001F04CF9002032E0B2F5804FCDE902441E
:1038D0002FD1B3F5003F0CBF042305238DF808302A
:1038E000836823FA01F1C9072FD4B2F5A03F2CD188
:1038F0006A09012A05F01F031C4A03F5E07318BF8B
:103900004FF0A04252F82330DB071ED40DF107041C
:103910002146284601F08EF8154B984214D12046D6
:1039200001F0D2F8134B98420ED06FF00B0005B0A7
:1039300030BDB3F5C02F05D0B3F5003F0CBF022357
:103940000123CBE70323C9E703940023194602AA06
:10395000284600F04DFF074B984204D1012128462C
:1039600001F0B8F8AEE76FF00400E0E700030050A4
:103970000400AD0B0000AD0B10B501F095F8044646
:1039800068B901F069F8084B98420AD10748214606
:1039900001F04AF8224605210620FFF765F80020CD
:1039A00010BD6FF00400FBE70000AD0B51380000C4
:1039B0002DE9F04347683B7B01F01F0585B00E46BB
:1039C00045EA43151446CAB902A9284601F032F85F
:1039D0000446284601F0E4F8484B984204D06FF0C2
:1039E000040005B0BDE8F083844205D19DF80800CD
:1039F00001F064F8A042F2D10020F2E74FF0000994
:103A00000DF103013046CDE9029901F013F84B4660
:103A1000804602AA4946284600F0EAFE374B984203
:103A200002D06FF01500DCE7804503D19DF803005C
:103A300001F044F8A3054ED5314B324A234093425E
:103A40003AD00CD8062B14D004D893B1022BE8D16D
:103A500004230EE0B3F5801FE3D1012309E02A4AD5
:103A600093422BD0B3F5A00F2AD0B3F5800FD8D155
:103A700002238DF8043084F48073C3F30023E0063E
:103A80008DF8053054BFC4F34013032321058DF88E
:103A9000063017D57B68012101FA06F6C3F80865E0
:103AA000002201A9284600F04FFF144B984214BF92
:103AB0006FF01500002094E70723DAE70523D8E725
:103AC0000323D6E7620541BF7B68012101FA06F6B0
:103AD000C3F80C65E4E7E3064FF0000354BFC4F3FA
:103AE000401403241A4601A928468DF8044000F02A
:103AF0007FFE024B98423FF47FAF92E70000AD0B90
:103B00000600F000060010000200400002480021FC
:103B1000C2E90001002070470024F400024640681A
:103B2000126938B500F10803043200F10C0419469B
:103B300013F9015B002DB4BF00254FF40045A342EB
:103B400022F8025BF4D100231A4601F02BF9034B53
:103B5000984214BF6FF00F00002038BD0000AD0B7D
:103B60002DE9F0479DF8204046680F46154601694B
:103B70009846002C3FD1F21D12F8013FFF2B03D0D5
:103B800023F080039F4239D00134E4B2042CF3D1F6
:103B90006FF0150009E0002040E00133082B4FEAE8
:103BA000520258D1F4E7C8B90020BDE8F087454576
:103BB00000F28680012F494B4FF0010218BF4FF0F1
:103BC000A0438240C3F80C25204603F09FFA00284A
:103BD000EAD10146304603F0D9FCE5E7304601F072
:103BE000CDF90028FAD00223012206F1180130464F
:103BF00001F086F9D8E76FF08500D6E701EB4409BC
:103C0000B9F804A0CAF30E0313B18A899A42C2D844
:103C1000204603F07BFA80F00100C0B296F80EC097
:103C2000BCF1010F04BF6D084FEA580825B30B68BB
:103C3000AB4221D0002301F1040EDAB2A24205D03A
:103C40003EF81320C2F30E02002AA1D10133042B47
:103C5000F3D12A460023B2F5004F5FFA83FE9CD2CF
:103C600081F80EE0D6F800E00D608A81CEF80C35C0
:103C7000CEF804C5CEF808258A7B45452B4628BFDB
:103C8000434623FA02F20AF4004A42EA0A0292B2D6
:103C9000A9F80420C2F30E021AB1B1F80CC0944581
:103CA00081D8321907F01F0092F908207F09002BF4
:103CB0003FF47DAF454506D8002AFFF67BAF02E012
:103CC000002ABFF677AF012F044B4FF0010218BF57
:103CD0004FF0A0438240C3F8082575E70003005069
:103CE000F0B54B79012B26D0032B21D110268B79EF
:103CF000032B1DD1CC790CB1012C19D10A7912B149
:103D0000022A15D10E220B684568B3F5164F2D68AF
:103D100065D02DD8B3F5165F64D016D8B3F5966F7D
:103D200062D00AD8B3F5967F61D0B3F5167F61D023
:103D30006FF0850052E00026D9E7B3F5166F5CD02E
:103D4000B3F5965FF4D1374B3CE0B3F5E14F57D074
:103D500007D8B3F5615F55D0B3F5964FE8D1324B34
:103D600030E047F61227BB42E2D14FF4000329E0CE
:103D7000B3F5613F48D013D8B3F5963F47D009D883
:103D80004DF6C027BB4244D0B3F5614FD0D14FF4BC
:103D90006B0317E0B3F5E13FCAD14FF0EB7311E0CD
:103DA000B3F5612F38D008D8204FBB4237D0B3F5D8
:103DB000E12FBDD14FF0E86304E01D4FBB42B7D106
:103DC0004FF08053C5F82435036903C934432243B7
:103DD0000433C5F86C2583E803000020F0BD4FF4E0
:103DE0001D03EFE7134BEDE74FF49E23EAE74FF493
:103DF000A033E7E74FF41C33E4E74FF41D23E1E77A
:103E00000D4BDFE70D4BDDE74FF06C73DAE70C4B42
:103E1000D8E74FF46503D5E74FF07063D2E74FF072
:103E20008063CFE700B0130000A04E0090D00300E5
:103E300040420F000050270000C0750000F03A001B
:103E400000903A0100F01F0240090128044B02F5DE
:103E5000E07218BF4FF0A043890043F8221070476A
:103E600000030050F8B5066905460F4603F0F6FC5E
:103E700010B9204B1B7883B94FF02003EFF3118466
:103E800083F31288BFF36F8F284603F0C1F928BB74
:103E900084F31188BFF36F8FEEE76424284603F0A4
:103EA000B7F970B9012003F0F6FA013CF6D1002110
:103EB000212001F0AFFEF0E784F31188BFF36F8F8C
:103EC000F5E74FF02003EFF3118483F31288BFF37B
:103ED0006F8F284603F09CF90028EDD0314601226F
:103EE00001F8147F284603F026FA84F31188BFF303
:103EF0006F8FF8BD0710002000F01F024009012855
:103F0000044B02F5E07218BF4FF0A043032143F8C1
:103F1000221070470003005000F01F0140090128E3
:103F2000044B4FF0010218BF4FF0A0438A40C3F882
:103F300008257047000300502DE9F041D0F80480B7
:103F40000769D8F800400023C4F800353860456898
:103F50000646E868421C04D0FFF7DEFFE868FFF77A
:103F6000CBFF2869431C06D02B7F002B14BF0321F5
:103F70000021FFF767FF6869421C04D0FFF7CCFF00
:103F80006869FFF7B9FFA869431C06D06B7F002B57
:103F900014BF03210021FFF755FFD5E903122B6859
:103FA000C3F80C15C3F81425D5E90512C3F8081594
:103FB0003169C3F8102504313046FFF791FE0546FC
:103FC000002846D1D8F80430990719D507F1160012
:103FD00000F0E2FE224B98423ED1B87DC30003F1CF
:103FE000804303F5F83304F10C0204F59071C3F833
:103FF0001015C3F814251B4A01238340C2F8043569
:104000000823C4F8003598F808305BB9C4F81031BB
:10401000D4F8103107F11503C4F834350123C4F87E
:1040200038352360D8F804309A075CBF4FF48072AB
:10403000C4F80423DB0644BF4FF48003C4F8043300
:1040400014370023C4F84475C4F848350123A3602D
:10405000E3602846BDE8F0816FF00405F9E700BF92
:104060000000AD0B00F00140194970B5044622F084
:104070007F460868C1E90023A6F50013101AB3F5BE
:10408000400F4FF000050AD2124B19680A060B0ABE
:104090009219114943F10003C1E90023012502F0FF
:1040A00009F8A30003F1804303F58833D3F84025D2
:1040B000B2420BD11DB94FF40002C3F84025074BA3
:1040C0004FF4803000FA04F4C3F8444370BD00BFDD
:1040D00018050020180D00200005002000100140E8
:1040E00010B501238340114ABFF35B8FDC4352E8D4
:1040F000001F01EA040C42E800CEBEF1000FF6D129
:10410000BFF35B8F4FF4803202FA00F002F180427D
:1041100002F58052C2F80803BFF35F8FBFF36F8FC1
:104120000B4214BF0120002010BD00BF140D002061
:104130000123124ABFF35B8F834052E8001F1943EB
:1041400042E8001CBCF1000FF7D1BFF35B8F0C4AB3
:104150004FF480338340C2F804330A4BBFF35B8FC4
:104160001B68BFF35B8F23FA00F0C30742BF064B07
:104170004FF40032C3F80021704700BF140D002037
:1041800000100140100D002000E100E00D4B1B6805
:10419000190A1806BFF35F8F0B4BD3F80435C0180C
:1041A00041F10001B3F5801F0AD2084BD3E9002387
:1041B000994208BF904203D210F1807041F1000192
:1041C000704700BF180D00200010014000050020BE
:1041D0002DE9F04F85B016461F460546FFF780FFD4
:1041E0000190FFF7D3FFB94208BFB0427FD2B6EBD0
:1041F000000867EB010900234FF080724B4508BFB0
:104200004245C0F08580444B03EB0513D3E90223FC
:104210009F4208BF964254D04FEA85094FF4803B35
:1042200009F1804905F150080BFA05F209F58839C2
:104230004FEA88081FFA88F80292384AD9F84005F0
:1042400026F07F4308F1804808F588381C469346DD
:10425000D2F804A5A0EB0A0020F07F402AF07F41AD
:104260000128C9F8401505D10393132003F042FB40
:104270002A4A039B02990AF1020CA4EB0C0020F0DD
:104280007F40B0F5000F88BF64460020C8F80000EA
:10429000D8F80000CBF8441324F07F40C9F840055B
:1042A000DBF80405824506D0201A023820F07F4052
:1042B000B0F5000F19D8E41A24F07F44321947F101
:1042C0000003154C290104EB0510C0E902230E9AE6
:1042D0000F9B625043600024019B13B12846FFF7F7
:1042E00027FF204605B0BDE8F08F2046B0E7012348
:1042F0000B4ABFF35B8FAB4052E8001F194342E803
:1043000000100028F8D1BFF35B8F32463B46D8E758
:104310006FF01504E0E700BF080500200010014021
:10432000100D002073B5194B194D00244FF0FF30CC
:104330004FF0FF31C5F80845C3E902014FF480335F
:10434000C5F80433134B02264FF400320121C5F89F
:1043500004631120C3F880212246FEF785FB11205B
:10436000FEF764FB0C4A012313600C4A2B601360B8
:104370000B4B0C4A0093019400232046FFF728FFC3
:104380003046FFF7ADF9204602B070BD08050020A9
:104390000010014000E100E008100140140D002071
:1043A00069400000FFFF7F002DE9F743344CD4F84B
:1043B00004339A0709D5334B1A6832B100221A60C8
:1043C000314A1B681368013313604FF02003EFF389
:1043D000118283F31288BFF36F8FD4F80433DB03A9
:1043E00012D5BFF35B8F294B53E8001F21F001006A
:1043F00043E80006002EF7D1BFF35B8F244B002962
:1044000036D11968002933D1002382F31188BFF314
:104410006F8F53B3FFF7BAFE06464FF02003EFF35A
:10442000118083F31288BFF36F8F1A4BD3E902898F
:10443000494508BF46454FF000021ED34FF0FF36F6
:104440004FF0FF37D3E90015C3E902671A604FF454
:104450008033C4F8483380F31188BFF36F8F21B1E4
:10446000009542464B460020884703B0BDE8F083E4
:10447000002119601B680123C7E71146EBE700BF65
:104480000010014004110140180D0020100D002003
:104490004011014008050020144B13B5B0F1FF3F57
:1044A00008BF1846441E002C1EDD9C42A8BF1C46B7
:1044B000FFF76CFE0E4B0F49D3E90023801AB0F5CD
:1044C000000F28BF002401300444084800918442B2
:1044D00028BF044612194FF00000019043F1000379
:1044E000FFF776FE02B010BD0024E1E7FFFF7F007A
:1044F000180500206940000008B5FFF747FE024B91
:104500001B68C01A08BD00BF18050020044B1A79AB
:1045100022B9012218609A80024870470248704709
:104520001C0D00200000AD0B0C00AD0B10B10128DC
:1045300020D070474FF08043D3F81824D3F81814D4
:1045400011F4803F194611D002F00302012A0DD167
:10455000C3F818250C4B00221A601B684FF08043EB
:104560000222C3F8042301229A6070470023C1F895
:104570001835EFE7054B00221A601B684FF08043A7
:10458000C3F80403186070470401004000010040B4
:1045900038B510B1012818D038BD4FF08043022241
:1045A000C3F80823184A10601268184A01211160E4
:1045B00042F210751C46D4F81834DB03ECD5012008
:1045C00002F069FF013DF6D1E6E7114B4FF0804460
:1045D0000022C4F808031A601B680E4B42F21075E3
:1045E0001860D4F80C34D4F80C24D20303F001037F
:1045F00005D523B1012002F04EFF013DF1D1064B5C
:1046000000225A71C8E700BF040100400C000040BE
:1046100000010040040000401C0D0020164B1A68E9
:1046200010B56AB100221A601B684FF08043012266
:10463000C3F80823114B587910B95A711B68984771
:104640000F4B1A6872B100221A601B684FF080434A
:10465000D3F81824D3F81814920704D10122C3F810
:1046600018259A6010BD0222C3F80823034BBDE849
:1046700010401B6801201847000100401C0D00205D
:104680000401004070B501250368B3FA83F2202AC3
:10469000C2F11F0414D0BFF35B8F05FA04F223EAC2
:1046A000020250E8006F9E4204D140E8002CBCF1A9
:1046B000000FF6D1BFF35B8FE6D102480C7070BDDE
:1046C0000148FCE70000AD0B0200AD0B0368CB40D6
:1046D000DB0710B515D4012303FA01F10368BFF31A
:1046E0005B8F41EA030250E8004F9C4204D140E84E
:1046F000002CBCF1000FF6D1BFF35B8FEED1024866
:1047000010BD0248FCE700BF0000AD0B0400AD0B7C
:10471000036803F01F025B09012B0260024818BF07
:104720004FF0A040704700BF0003005070B500F18B
:1047300008030C4C34F81330DA0505460E4607D54D
:10474000C3F3432304EBC30254F833305268984751
:10475000A3682BB1E26831462846BDE8704018478F
:1047600070BD00BF28010020124B083010B433F890
:104770001020D1051BD5C2F3432122F4F85223F8AF
:10478000102003F11004002034F8022B12F4807F73
:1047900003D0C2F34322914209D001303028F3D133
:1047A000002243F83120044810BCFFF78FBF10BC33
:1047B000704700BF280100209C01002038B50A4C3A
:1047C00000F1080534F815309A0606D55B0B074A48
:1047D00003F5A273002142F82310FFF7C5FF002361
:1047E00024F8153038BD00BF2801002000600040CB
:1047F0002DE9FF411D46044617460B4609B34D4EB1
:1048000000F1080836F8182002F02202222A03D10B
:10481000494804B0BDE8F0810022CDE900228DF8BE
:104820000E208DF80F200DF10E010DF10F0202F098
:1048300034FE36F8183023F0020343F0010326F863
:10484000183097B13B483E787A6804F1080330F895
:1048500013108F070CD5002ADAD130F8132022F07C
:104860001C0242EA860220F81320CDBB3348D0E771
:1048700021F02001C904C90C20F81310002AECD043
:10488000032EC5D817782EB92D4A07F5A27142F824
:104890002160E2E7BA0002F1804202F5C0424FEA2D
:1048A000042ED2F810C52CF0030CC2F810C5D2F8B3
:1048B00010C52CF44F3C2CF4407CC2F810C5D2F843
:1048C00010C50EF47C5E4CEA064C41EA47314CEAD6
:1048D0000E0C41F0200120F81310C2F810C5BCE7FF
:1048E000D5E900672046FFF73FFF002EBED0114DEF
:1048F0002B689E4204D16B689F4201D1002209E0DF
:1049000010480DF10F01FFF7BDFE0C4B984280D10E
:104910009DF80F2045F8326005EBC20308345F6054
:1049200035F8143043EA422343F4807325F81430F9
:104930009CE700BF280100200400AD0B0000AD0B78
:10494000006000409C010020F0B5044685B015468B
:1049500009B300F10807314E36F81730980701D433
:104960009A0658D413F01C0F02D04B78012B52D06A
:1049700001238DF80F300023CDE900134A1C8B1C56
:1049800020460DF10F0102F088FD36F8173043F094
:10499000030326F8173015B9214805B0F0BD1F4EA6
:1049A00004F1080736F81700830734D595F800C0DE
:1049B0006146890020F0200001F18041C00401F52A
:1049C000C041C00C26F817000023C1F810356A78E2
:1049D000002AE1D0D1F81035AD7823F4991323F4EF
:1049E000F853C1F81035D1F810E5230203F47C53D5
:1049F000120443EA0E0302F440322D05134305F47A
:104A0000801540EA4C302B4340F0200026F8170078
:104A1000C1F81035C0E70348BFE700BF28010020F8
:104A20000000AD0B0400AD0B014BC3E90201704760
:104A3000280100200830054B33F810309A0643BF98
:104A40005B0B03480B700348704700BF2801002030
:104A50000000AD0B0400AD0B38B50E4C94F8785047
:104A6000B5B96022294604F1100002F026FA0620AA
:104A7000FDF7DCFF084B09481D601B68084B4FF031
:104A80000042C3F80423012384F87830636738BDFB
:104A90000448FCE7280100207C6100400000AD0BC9
:104AA000006000400500AD0B034B93F87800003820
:104AB00018BF0120704700BF2801002001460148AF
:104AC000FFF704BE9801002001460148FFF7DABD58
:104AD0009801002037B51F4B00F10802044633F857
:104AE00012309A061DD513F002051AD15B0B9A00FD
:104AF00002F1804000F5C24002F1804202F5C0425E
:104B000005600068D2F8100540F00100C2F81005F9
:104B100029B1012202FA03F30F4AC2F8043303B0A9
:104B200030BDC3F38203042B10D0052B10D001A895
:104B30000194FFF7EDFD019BD0F81015D94001F06D
:104B400001010231204602F0EFFCE8E70321F9E71A
:104B50000221F7E728010020006000400E4B00F121
:104B6000080233F81230990613D59A0711D45B0B5B
:104B700001229A409B00094903F1804303F5C04399
:104B8000C1F80823D3F8102522F00302C3F810253A
:104B90007047002102F0C8BC2801002000600040DE
:104BA0000E4B00F1080213B513F81230DB07044670
:104BB00011D5FFF7D3FF2046FFF700FE01A80194AF
:104BC000FFF7A6FD019B03F5E073022240F82320C6
:104BD000034802B010BD0348FBE700BF28010020D6
:104BE0000000AD0B0400AD0B2DE9F04F644B6548A0
:104BF0006549002587B001222C461E6836B1D0F8E1
:104C0000046316421EBF1C601E68154304338B42AA
:104C10004FEA4202F1D15D4F3B687BB34FF0A043B6
:104C20005B4ED3F820250492C3F82025D6F8203512
:104C30000593C6F8203500960DF110094FF00008D5
:104C40004FF0010BD9F80030F3B908F12008B8F1A2
:104C5000400F09F10409F5D13B603B6800994FF022
:104C6000A043D3F820250492C3F82025009BD3F855
:104C700020350593C1F820351343DDD10124002DE3
:104C800066D107B0BDE8F08F93FAA3F3B3FA83F3CC
:104C900008EB030606F108023E4B039633F8122098
:104CA000C2F38203F40801939A4604AB06F00700AE
:104CB0000BFA00FC185D20EA0C00185503A89108B7
:104CC000FFF726FD039C04F5E0744B0750F82440E1
:104CD000C4F3014423D551463046FFF727FD03A80E
:104CE0000396FFF715FD039A02F5E072E4B250F85F
:104CF0002220C2F30142944207D10021304602F043
:104D000013FC2146304602F00FFC03A80396FFF780
:104D1000FFFC039B0BFA03F3C0F8203592E7022C4B
:104D20000CBF03210221304602F0FEFB019B032B46
:104D300004D0022C07D1BAF1010FE6D1514630461A
:104D4000FFF7F4FCE1E7032CDFD1BAF1020FF4E73F
:104D500095FAA5F3B3FA83F304FA03F29B0003F187
:104D6000804303F5C04325EA0205D3F81005D3F8C4
:104D70001015C0F30520C1F30141FFF7D7FC7EE712
:104D80000061004000600040206100407C61004004
:104D9000000300502801002001460148FFF772BCC3
:104DA000A40100202DE9F04F0579514F0C246C43EC
:104DB0003E1989B096F808C00292B846BCF1000FBF
:104DC00040F0938091F80CC073604B7B3A5186F8A9
:104DD0000AC00193BCF1000F31D083B300680123F6
:104DE000C0F800358C790B894E79C0F80C65C0F895
:104DF0000445C0F808354B89C0F810350023C0F8C9
:104E00000032C0F80033C0F81C31D0F81C11C0F8D3
:104E10001031D0F81011C0F81431D0F81411C0F8C6
:104E20000431D0F80431029B002B59D10C2303FB31
:104E30000585304801232B7209B0BDE8F08FCB1CEB
:104E4000DFF8B8E003934F1E04AE4FF0010917F8E6
:104E500001AFBAF1FF0F3FD02AF080033360BCF1FD
:104E6000000F19D11AF0800F0AF01F044FEA5313F4
:104E700028D1012B14BF4FF0A04AF24609FA04FBD7
:104E8000CAF80CB5012B14BF4FF0A043734604F5CC
:104E9000E074032243F82420039B9F4206F104069A
:104EA000D5D1019B002B99D10368049CC3F86045C0
:104EB000059CC3F86445069CC3F86845079CC3F885
:104EC0006C458BE7012B14BF4FF0A04AF24609FA5C
:104ED00004FBCAF808B5D5E74FF0FF333360DBE7D2
:104EE00040F30730FDF7A2FDA0E70348A4E700BFA9
:104EF000240D00200000AD0B0500AD0B0003005099
:104F0000F0B40D4601790068D5F800C0AF88AE68EE
:104F1000C0F820C51C46184BC0F8247501EB4101B0
:104F200003EB8101EB68C0F82865C0F82C35C0F8A8
:104F300040C5C0F84475C0F84865C0F84C3502F06B
:104F4000010303EB5202C0F81425E20711D414F058
:104F5000020203D0002B14BF08220422002BC0F849
:104F6000002218BF0C23E2B208BF0823F0BC02F0F5
:104F7000EABA1022F2E700BF240D0020084B0279A4
:104F80000C2101FB02320168137AD1F80411DBB263
:104F900019B9981E18BF0120704701201072704780
:104FA000240D0020034B1868A0F108035842584113
:104FB000704700BF30010010064B1B68082B06D15C
:104FC000054B1B68052B02D8044AD05C70470020B3
:104FD000704700BF30010010340100107C830000D6
:104FE000024AD2F80034002BFBD0704700E00140A9
:104FF00010B5FFF7D7FF40B14FF080430022C3F850
:105000000C21C3F81021C3F83825FFF7CBFF002887
:1050100046D04FF080525B4BD2F80414C3F82015F1
:10502000D2F80814C3F82415D2F80C14C3F82815C4
:10503000D2F81014C3F82C15D2F81414C3F8301594
:10504000D2F81814C3F83415D2F81C14C3F840155C
:10505000D2F82014C3F84415D2F82414C3F8481524
:10506000D2F82814C3F84C15D2F82C14C3F85015F4
:10507000D2F83014C3F85415D2F83414C3F86015BC
:10508000D2F83814C3F86415D2F83C14C3F8681584
:10509000D2F84014C3F86C15D2F84424C3F8702534
:1050A000FFF78AFF10B1384B384A1A60FFF784FFC8
:1050B00018B1374BFB22C3F81825FFF77DFF48B125
:1050C0003449354B0A681B6822F00F0203F00F03C6
:1050D00013430B60FFF770FF18B1304B4FF40072B1
:1050E0001A60FFF75FFF48B14FF08043D3F8002408
:1050F000D20744BF6FF00102C3F80024284B1B689D
:10510000082B0ED1274B1B68052B02D8264AD35CEF
:105110003BB14FF01023D3F808224FF08043C3F87F
:1051200058254FF01023D3F80022002A03DBD3F8D0
:105130000432002B22DA1D490123C1F80435FFF7A0
:105140004FFF4FF010201224C0F80042FFF748FF35
:10515000C0F80442FFF744FF0023C1F80435FFF70D
:105160003FFFBFF34F8F1249124BCA6802F4E0624F
:105170001343CB60BFF34F8F00BFFDE70E4B0F4AC9
:105180001A6010BD00C000408C56004048810300EA
:1051900000F00040E40E004058020010409602402B
:1051A00030010010340100107683000000E001405F
:1051B00000ED00E00400FA05A80100200090D003F3
:1051C0000E4B70B553F82040013053F82060A642D2
:1051D00000D870BDD4E900352846984765B1EB6822
:1051E00030B10028B8BF4042FF28A8BFFF20187088
:1051F0005A7842F001025A700834E8E7C07D000096
:1052000070B5054610B90024204670BD0378002B08
:10521000F9D00F4A0F4C1646944208D10D4CB442B7
:10522000F1D0204602F0C9F950B91834F7E720460A
:1052300002F0C3F910B12368AB42E5D01834EBE7B4
:105240002168284601F022FE0028EED1DCE700BFED
:105250006C7A0000C4790000014B98686030704798
:10526000300D002008B5094C4FF02002EFF31183F8
:1052700082F31288BFF36F8F02F00CFBA061FDF781
:1052800089FA0028F0D1FDF75BFBEDE7300D002037
:1052900030B5002387B00122CDE904230F22CDE9E8
:1052A00002320D4C0D4A01930D49182304EBC01432
:1052B00003FB00234FF4B075009305FB0011094B6D
:1052C0004FF4A072204600F061FD637B23F00403DD
:1052D000637307B030BD00BF20050020300D0020F3
:1052E000A02A00206552000008B50A4B01220220C6
:1052F0001A70FFF765FF01F021F80320FFF760FF48
:1053000000F0A2FDFCF7D4FA034A137B23F001035B
:10531000137308BD07100020A00500200248034AAF
:105320000021121A01F0C9BD80020020C411002022
:1053300080B5DFF8D880A6B088F308882D4D2E4EB2
:105340006B69DFF8CC9043F4007300246B61E023B9
:1053500085F82230EC772C766C76AC7685F8204098
:105360006B6A43F4E0236B6285F82340FDF742FD4E
:10537000FDF7E0FA4FF0FF33AB62EB62FDF730FE72
:10538000FDF7A0FD40F20113ADF8243006ABB36089
:10539000CDE91F4402F010F92046FFF711FF01206C
:1053A000164DFFF70DFF00F09BFB154B05930123F6
:1053B00014490094CDE903434FF480624B46CDE994
:1053C00001442846F56100F0E1FC6A7B22F004020A
:1053D0006A730746284602F0A9F92046FFF758FFEE
:1053E000094BF3604A46394628463475C6F80480AE
:1053F000FDF7BEFB00ED00E0300D0020A005002011
:105400008283000080260020200500202034002018
:10541000E952000070B50E4B0E4CA34201D30020A0
:1054200070BDD3E9030141EA000212F003020BD17F
:105430009D685A61AA4201D11C33EEE75E690E6095
:10544000013259610144F5E76FF01500E8E700BF4C
:105450003002002030020020D3B50C4616461F460D
:105460004FF02003EFF3118183F31288BFF36F8FA6
:1054700043695BB123601B684361836901338361C6
:10548000002081F31188BFF36F8F11E056EA070205
:1054900003D123606FF00B00F3E70246CDE900670C
:1054A000083000F06FFA18B9024B9B685B69236003
:1054B00002B0D0BD300D00202DE9F3410446164660
:1054C0001F464FF02003EFF3118883F31288BFF3D8
:1054D0006F8FC368354A6BB180689168884219D074
:1054E00056EA070318D188F31188BFF36F8F6FF066
:1054F0000F000CE0916891F90E1021610133E36017
:105500009368A36088F31188BFF36F8F002002B007
:10551000BDE8F0812169F0E791F90E1090F90E30A5
:105520009942A8BF19466FF07E029142B8BF11465A
:105530008B422FDD00F03AFA0546CDE900671C48A2
:105540002246414600F01EFA0028E0D04FF020032A
:10555000EFF3118683F31288BFF36F8F23682169FD
:105560009C420AD04BB193F90E309942A8BF19461C
:105570006FF07E039942B8BF1946A06890F90E30CB
:10558000994209D16DB10A48314600F0A1F86FF097
:105590000A00BCE70025D0E700F008FA0028F2D1A5
:1055A000F0E786F31188BFF36F8FF0E7300D00202E
:1055B0000810002038B583680446002B36D01E4AF8
:1055C0009268934235D1DA7B013ADA73C368012BD2
:1055D00005D9013BC36000F067FA002038BD4FF0E9
:1055E0002003EFF3118583F31288BFF36F8F0169F6
:1055F000806890F90E30994201D000F0D7F920462A
:1056000002F008F9A06058B190F90E202261002242
:10561000826702F08BF80948294600F059F8DAE76A
:10562000E06085F31188BFF36F8FD4E76FF015004A
:10563000D4E74FF0FF30D1E7300D002008100020F4
:1056400010B5084C23685BB1FEF756FF034620688F
:10565000054A0344BDE810401361002102F02AB955
:1056600010BD00BF600D0020300D0020F8B50446CD
:105670000D464FF02003EFF3118683F31288BFF33A
:105680006F8F104B00224FF4004740F2E7300021AB
:105690001A61E7FB040100234FF47A72FBF708FB61
:1056A000002C094B09DC1860084B1D60FFF7C8FF90
:1056B00086F31188BFF36F8FF8BD0228B8BF0220B0
:1056C000F1E700BF300D0020600D00205C0D0020D0
:1056D00049B9EFF3058030B9054BDA699B689A4206
:1056E00001D0FDF7F5B981F31188BFF36F8F7047D3
:1056F000300D00204FF02003EFF3118183F3128867
:10570000BFF36F8F044B9A68D37B013BD37381F354
:105710001188BFF36F8F7047300D002038B50246F7
:105720000C480D4D01F0F8FF044600B9EC68AB6879
:105730004AB95A7BD20606D1A26922B9DA897F2AF0
:1057400001D9EB6138BD9C4201D0FFF779FFEC61D4
:10575000F8E700BF500D0020300D002070B590F923
:105760000D20437B002A014604DA03F07F034373D4
:1057700001F09AFF4B7B174A63F07F0310464B738F
:1057800050F8203F556A834208BF0023002B38BFE2
:105790000023CBB191F90E6093F90E40A6420FD0D1
:1057A000A41B002C0CDD5868C1E900300160596071
:1057B0009068431A5842BDE870405841FFF7AEBFA9
:1057C000AB4201D01B68E4E7C1E9000529605162E2
:1057D000EEE700BF300D002070B501464FF020030A
:1057E000EFF3118483F31288BFF36F8F164B174AC0
:1057F00098681568A8421D4606D1FFF721FF84F37B
:105800001188BFF36F8F70BD00261660104A1268B2
:10581000BAB1C2897F2A14D8427BD20611D10D4A6F
:1058200090F90E60126896420BDB0B4A904208D04A
:105830001A698A4202DCFFF791FFDEE7521A1A6109
:10584000DDE700232B61DAE7300D0020580D002042
:10585000600D00205C0D00202005002070B490F940
:105860000D30427B002B2DDBD3062BD183694BBB44
:10587000154962F07F0242730A464D6A52F8204F82
:10588000944218BF2346002B38BF0023ABB190F9D8
:105890000E6093F90E40A6420BD0A41B002C08DD2D
:1058A0005A68C0E900321060586070BC0020FFF7F1
:1058B00035BFAB4201D01B68E8E7C0E9002528608E
:1058C0004862F2E770BC7047300D002010B54FF011
:1058D0002002EFF3118482F31288BFF36F8F427BB3
:1058E000510704D484F31188BFF36F8F10BD22F0E9
:1058F00004024273FFF7B2FF21460248BDE81040A0
:10590000FFF7E6BE0810002008B590F90D20437B94
:10591000002A014604DA03F07F03437301F0C4FE5A
:10592000044B9868431A58425841BDE80840FFF7B5
:10593000F5BE00BF300D00202DE9F04106461446AB
:105940001D464FF02003EFF3118783F31288BFF356
:105950006F8F01F01DFF87F31188BFF36F8F6B1CF2
:1059600008BFB4F1FF3F08D022462B4606F11800CD
:105970000349BDE8F04100F015BBBDE8F08100BF70
:105980004D77000010B5074B9868074B0C46186020
:105990001146DDE90223FFF7CFFF2046BDE81040A6
:1059A000FDF796B8300D0020580D0020F8B50446DC
:1059B0004FF02003EFF3118683F31288BFF36F8F4C
:1059C000437BDA0649B238D18569002D35D103F021
:1059D0007F03437301F068FE437B817363F07F03B1
:1059E00043731748034653F8207F9F4218BF3D4634
:1059F000002D476A1A462B4638BF0023C3B193F9DE
:105A00000E50A94210D06D1A002D0DDD5A68C4E960
:105A1000003214605C600120FFF780FE012086F3F5
:105A20001188BFF36F8FF8BDBB4201D01B68E5E75B
:105A3000C4E900273C604462EDE7A1730020EEE773
:105A4000300D002070B50446183001F00DFF4FF006
:105A50002003EFF3118683F31288BFF36F8F94F95D
:105A60000D20637B002A05DA03F07F036373204671
:105A700001F01AFE0B4D637BA86843F010036373BB
:105A8000031B58425841FFF749FE86F31188BFF3C4
:105A90006F8FAB68A34203D1BDE8704001F032BE06
:105AA00070BD00BF300D002010B54FF02003EFF3A4
:105AB000118483F31288BFF36F8F084B9A68D37BEE
:105AC0000133D3730020FFF729FE84F31188BFF35D
:105AD0006F8FBDE8104001F015BE00BF300D0020F3
